:020000040804EE
:100000000000022075F50408D9E00408DFE00408C8
:10001000E7E00408EDE00408F3E004080000000055
:10002000000000000000000000000000D18A050868
:10003000F9E0040800000000218D0508915E050824
:10004000C5F50408C5F50408C5F50408C5F5040898
:10005000C5F50408C5F50408C5F50408C5F5040888
:10006000C5F5040807E10408C5F50408C5F504084A
:10007000C5F50408C5F50408C5F50408C5F5040868
:1000800015E1040829E10408C5F50408C5F50408CC
:100090003DE10408C5F50408C5F5040851E104086C
:1000A000C5F5040861E10408C5F50408C5F50408B0
:1000B000C5F5040875E10408C5F50408C5F504088C
:1000C000C5F50408C5F50408C5F50408C5F5040818
:1000D000C5F50408C5F5040889E10408C5F5040858
:1000E000C5F50408C5F50408C5F50408C5F50408F8
:1000F000C5F50408C5F50408C5F50408C5F50408E8
:10010000C5F50408C5F50408C5F50408C5F50408D7
:10011000C5F50408C5F50408C5F50408C5F50408C7
:10012000C5F50408C5F50408C5F50408C5F50408B7
:10013000C5F504080000000000000000C5F5040833
:100140009DE10408C5F50408C5F50408C5F50408D3
:10015000C5F50408C5F50408C5F50408C5F5040887
:10016000C5F50408C5F50408C5F50408C5F5040877
:10017000C5F50408C5F504080000000000000000F3
:08018000C5F50408C5F50408EB
:1001900010B5054C237833B9044B13B10448AFF3C1
:1001A00000800123237010BD987E00200000000015
:1001B000684B060808B5034B1BB103490348AFF36E
:1001C000008008BD000000009C7E0020684B0608EF
:1001D000034613F8012B002AFBD1181A0138704787
:1001E00001F0FF01102A2BDB10F0070F08D010F8E8
:1001F000013B013A8B422DD010F0070F42B3F6D1EC
:10020000F0B441EA012141EA014122F007047FF004
:1002100000070023F0E80256083C85EA010586EA5B
:10022000010685FA47F5A3FA87F586FA47F6A5FA97
:1002300087F68EB9EED1F0BC01F0FF0102F00702A3
:1002400032B110F8013B013A83EA010313B1F8D14E
:100250000020704701387047002D06BF354603382F
:10026000073815F0010F07D1013015F4807F02BF68
:10027000013015F4C03F0130F0BC0138704700BFB9
:1002800081F0004102E000BF83F0004330B54FEA47
:1002900041044FEA430594EA050F08BF90EA020FB4
:1002A0001FBF54EA000C55EA020C7FEA645C7FEA47
:1002B000655C00F0E2804FEA5454D4EB5555B8BF6A
:1002C0006D420CDD2C4480EA020281EA030382EADB
:1002D000000083EA010180EA020281EA0303362D6D
:1002E00088BF30BD11F0004F4FEA01314FF4801C40
:1002F0004CEA113102D0404261EB410113F0004F52
:100300004FEA03334CEA133302D0524263EB430308
:1003100094EA050F00F0A780A4F10104D5F1200EA6
:100320000DDB02FA0EFC22FA05F2801841F1000101
:1003300003FA0EF2801843FA05F359410EE0A5F1D5
:1003400020050EF1200E012A03FA0EFC28BF4CF006
:10035000020C43FA05F3C01851EBE37101F00045BC
:1003600007D54FF0000EDCF1000C7EEB00006EEBC9
:100370000101B1F5801F1BD3B1F5001F0CD3490853
:100380005FEA30004FEA3C0C04F101044FEA4452AA
:1003900012F5800F80F09A80BCF1004F08BF5FEA31
:1003A000500C50F1000041EB045141EA050130BD11
:1003B0005FEA4C0C404141EB0101013C28BFB1F523
:1003C000801FE9D291F0000F04BF01460020B1FA6E
:1003D00081F308BF2033A3F10B03B3F120020CDA41
:1003E0000C3208DD02F1140CC2F10C0201FA0CF01F
:1003F00021FA02F10CE002F11402D8BFC2F1200C84
:1004000001FA02F120FA0CFCDCBF41EA0C01904039
:10041000E41AA2BF01EB0451294330BD6FEA040482
:100420001F3C1CDA0C340EDC04F11404C4F120026D
:1004300020FA04F001FA02F340EA030021FA04F37F
:1004400045EA030130BDC4F10C04C4F1200220FAD6
:1004500002F001FA04F340EA0300294630BD21FA14
:1004600004F0294630BD94F0000F83F4801306BFDA
:1004700081F480110134013D4EE77FEA645C18BFCE
:100480007FEA655C29D094EA050F08BF90EA020F65
:1004900005D054EA000C04BF1946104630BD91EA5D
:1004A000030F1EBF0021002030BD5FEA545C05D160
:1004B0004000494128BF41F0004130BD14F580049F
:1004C0003CBF01F5801130BD01F0004545F0FE4113
:1004D00041F470014FF0000030BD7FEA645C1ABF48
:1004E000194610467FEA655C1CBF0B46024650EA7F
:1004F000013406BF52EA033591EA030F41F40021AB
:1005000030BD00BF90F0000F04BF0021704730B530
:100510004FF4806404F132044FF000054FF0000105
:1005200050E700BF90F0000F04BF0021704730B5C6
:100530004FF4806404F1320410F0004548BF40429B
:100540004FF000013EE700BF42004FEAE2014FEAF0
:1005500031014FEA02701FBF12F07F4393F07F4FCB
:1005600081F06051704732F07F4208BF704793F0CE
:100570007F4F04BF41F40021704730B54FF46074E1
:1005800001F0004521F000411CE700BF50EA0102E4
:1005900008BF704730B54FF000050AE050EA01028D
:1005A00008BF704730B511F0004502D5404261EBFD
:1005B00041014FF4806404F132045FEA915C3FF43E
:1005C000D8AE4FF003025FEADC0C18BF03325FEADB
:1005D000DC0C18BF033202EBDC02C2F1200300FA8C
:1005E00003FC20FA02F001FA03FE40EA0E0021FAB1
:1005F00002F11444BDE600BF70B54FF0FF0C4CF49F
:10060000E06C1CEA11541DBF1CEA135594EA0C0F50
:1006100095EA0C0F00F0DEF82C4481EA030621EA8B
:100620004C5123EA4C5350EA013518BF52EA0335C6
:1006300041F4801143F4801338D0A0FB02CE4FF078
:100640000005E1FB02E506F00042E0FB03E54FF0A8
:100650000006E1FB03569CF0000F18BF4EF0010EA0
:10066000A4F1FF04B6F5007F64F5407404D25FEA9C
:100670004E0E6D4146EB060642EAC62141EA55514F
:100680004FEAC52040EA5E504FEACE2EB4F1FD0C91
:1006900088BFBCF5E06F1ED8BEF1004F08BF5FEA0F
:1006A000500E50F1000041EB045170BD06F00046C1
:1006B00046EA010140EA020081EA0301B4EB5C046E
:1006C000C2BFD4EB0C0541EA045170BD41F4801166
:1006D0004FF0000E013C00F3AB8014F1360FDEBF8B
:1006E000002001F0004170BDC4F10004203C35DA67
:1006F0000C341BDC04F11404C4F1200500FA05F3EA
:1007000020FA04F001FA05F240EA020001F000428A
:1007100021F0004110EBD37021FA04F642EB060100
:100720005EEA430E08BF20EAD37070BDC4F10C042A
:10073000C4F1200500FA04F320FA05F001FA04F2EE
:1007400040EA020001F0004110EBD37041F10001DA
:100750005EEA430E08BF20EAD37070BDC4F12005E5
:1007600000FA05F24EEA020E20FA04F301FA05F24D
:1007700043EA020321FA04F001F0004121FA04F2F5
:1007800020EA020000EBD3705EEA430E08BF20EAC5
:10079000D37070BD94F0000F0FD101F000464000FF
:1007A00041EB010111F4801F08BF013CF7D041EA81
:1007B000060195F0000F18BF704703F00046520085
:1007C00043EB030313F4801F08BF013DF7D043EA56
:1007D0000603704794EA0C0F0CEA135518BF95EA0C
:1007E0000C0F0CD050EA410618BF52EA4306D1D193
:1007F00081EA030101F000414FF0000070BD50EAB2
:10080000410606BF1046194652EA430619D094EA3B
:100810000C0F02D150EA013613D195EA0C0F05D125
:1008200052EA03361CBF104619460AD181EA030179
:1008300001F0004141F0FE4141F470014FF0000031
:1008400070BD41F0FE4141F4780170BD70B54FF0CC
:10085000FF0C4CF4E06C1CEA11541DBF1CEA13554C
:1008600094EA0C0F95EA0C0F00F0A7F8A4EB05042E
:1008700081EA030E52EA03354FEA013100F0888025
:100880004FEA03334FF0805545EA131343EA1263EE
:100890004FEA022245EA111545EA10654FEA0026A3
:1008A0000EF000419D4208BF964244F1FD0404F55C
:1008B000407402D25B084FEA3202B61A65EB0305B8
:1008C0005B084FEA32024FF480104FF4002CB6EB75
:1008D000020E75EB030E22BFB61A754640EA0C00F5
:1008E0005B084FEA3202B6EB020E75EB030E22BF35
:1008F000B61A754640EA5C005B084FEA3202B6EB76
:10090000020E75EB030E22BFB61A754640EA9C0034
:100910005B084FEA3202B6EB020E75EB030E22BF04
:10092000B61A754640EADC0055EA060E18D04FEAC2
:10093000051545EA16754FEA06164FEAC30343EA62
:1009400052734FEAC2025FEA1C1CC0D111F4801F2F
:100950000BD141EA00014FF000004FF0004CB6E728
:1009600011F4801F04BF01430020B4F1FD0C88BFC7
:10097000BCF5E06F3FF6AFAEB5EB030C04BFB6EBD2
:10098000020C5FEA500C50F1000041EB045170BDC5
:100990000EF0004E4EEA113114EB5C04C2BFD4EBF2
:1009A0000C0541EA045170BD41F480114FF0000E76
:1009B000013C90E645EA060E8DE60CEA135594EAF2
:1009C0000C0F08BF95EA0C0F3FF43BAF94EA0C0FF5
:1009D0000AD150EA01347FF434AF95EA0C0F7FF46A
:1009E00025AF104619462CE795EA0C0F06D152EABE
:1009F00003353FF4FDAE1046194622E750EA4106A2
:100A000018BF52EA43067FF4C5AE50EA41047FF4B2
:100A10000DAF52EA43057FF4EBAE12E74FF0FF3C17
:100A200006E000BF4FF0010C02E000BF4FF0010CE8
:100A30004DF804CD4FEA410C7FEA6C5C4FEA430C61
:100A400018BF7FEA6C5C1BD001B050EA410C0CBFB0
:100A500052EA430C91EA030F02BF90EA020F002012
:100A6000704710F1000F91EA030F58BF994208BF79
:100A700090422CBFD8176FEAE37040F00100704736
:100A80004FEA410C7FEA6C5C02D150EA013C07D18D
:100A90004FEA430C7FEA6C5CD6D152EA033CD3D0D8
:100AA0005DF8040B704700BF8446104662468C46D2
:100AB0001946634600E000BF01B5FFF7B7FF002805
:100AC00048BF10F1000F01BD4DF808EDFFF7F4FF2E
:100AD0000CBF012000205DF808FB00BF4DF808EDB9
:100AE000FFF7EAFF34BF012000205DF808FB00BFDC
:100AF0004DF808EDFFF7E0FF94BF012000205DF8FE
:100B000008FB00BF4DF808EDFFF7CEFF94BF0120B2
:100B100000205DF808FB00BF4DF808EDFFF7C4FFAB
:100B200034BF012000205DF808FB00BF4FEA410CF4
:100B30007FEA6C5C02D150EA013C0AD14FEA430CD7
:100B40007FEA6C5C02D152EA033C02D14FF0000014
:100B500070474FF0010070474FEA410212F5001252
:100B600015D211D56FF47873B3EB625212D94FEAF4
:100B7000C12343F0004343EA505311F0004F23FADE
:100B800002F018BF404270474FF00000704750EA33
:100B9000013005D111F0004008BF6FF000407047F0
:100BA0004FF00000704700BF4A0011D212F500124A
:100BB00011D20DD56FF47873B3EB62520ED44FEAB5
:100BC000C12343F0004343EA505323FA02F0704735
:100BD0004FF00000704750EA013002D14FF0FF3073
:100BE00070474FF0000070474FEA4102B2F1E04316
:100BF00024BFB3F5001CDCF1FE5C0DD901F0004C04
:100C00004FEAC0024CEA5070B2F1004F40EB830053
:100C100008BF20F00100704711F0804F21D113F17F
:100C20003872BCBF01F00040704741F480114FEAB8
:100C30005252C2F11802C2F1200C10FA0CF320FA41
:100C400002F018BF40F001004FEAC1234FEAD3235E
:100C500003FA0CFC40EA0C0023FA02F34FEA4303C8
:100C6000CCE77FEA625307D150EA01331EBF4FF051
:100C7000FE4040F44000704701F0004040F0FE406C
:100C800040F40000704700BF80F0004002E000BF69
:100C900081F0004142001FBF5FEA410392EA030F67
:100CA0007FEA226C7FEA236C6AD04FEA1262D2EBB1
:100CB0001363C1BFD218414048404140B8BF5B42B6
:100CC000192B88BF704710F0004F40F4000020F04F
:100CD0007F4018BF404211F0004F41F4000121F065
:100CE0007F4118BF494292EA030F3FD0A2F10102AF
:100CF00041FA03FC10EB0C00C3F1200301FA03F1ED
:100D000000F0004302D5494260EB4000B0F5000F0F
:100D100013D3B0F1807F06D340084FEA310102F1CE
:100D20000102FE2A51D2B1F1004F40EBC25008BF80
:100D300020F0010040EA03007047490040EB00004A
:100D4000013A28BFB0F5000FEDD2B0FA80FCACF14B
:100D5000080CB2EB0C0200FA0CF0AABF00EBC25078
:100D600052421843BCBFD0401843704792F0000F66
:100D700081F4000106BF80F400000132013BB5E7B9
:100D80004FEA41037FEA226C18BF7FEA236C21D02F
:100D900092EA030F04D092F0000F08BF0846704794
:100DA00090EA010F1CBF0020704712F07F4F04D162
:100DB000400028BF40F00040704712F100723CBF75
:100DC00000F50000704700F0004343F0FE4040F49F
:100DD000000070477FEA226216BF08467FEA23635D
:100DE0000146420206BF5FEA412390EA010F40F448
:100DF000800070474FF0000304E000BF10F0004394
:100E000048BF40425FEA000C08BF704743F096437A
:100E100001464FF000001CE050EA010208BF704795
:100E20004FF000030AE000BF50EA010208BF70471C
:100E300011F0004302D5404261EB41015FEA010C31
:100E400002BF84460146002043F0B64308BFA3F129
:100E50008053A3F50003BCFA8CF2083AA3EBC2530B
:100E600010DB01FA02FC634400FA02FCC2F120022A
:100E7000BCF1004F20FA02F243EB020008BF20F061
:100E80000100704702F1200201FA02FCC2F12002C7
:100E900050EA4C0021FA02F243EB020008BF20EABC
:100EA000DC70704753B94AB9002908BF00281CBF3D
:100EB0004FF0FF314FF0FF3000F06EB9ADF1080C8C
:100EC0006DE904CE00F006F8DDF804E0DDE9022368
:100ED00004B070472DE9F047089D04468C46002B6E
:100EE00040F083808A42174647D9B2FA82F242B173
:100EF000C2F1200024FA00F09140974040EA010C32
:100F000094404FEA1748230CBCFBF8F61FFA87FE03
:100F100008FB16C143EA014306FB0EF1994209D9C9
:100F2000FB1806F1FF3080F01981994240F21681DA
:100F3000023E3B445B1AA4B2B3FBF8F008FB10334B
:100F400044EA034400FB0EFEA64509D93C1900F112
:100F5000FF3380F00581A64540F2028102383C440F
:100F600040EA0640A4EB0E0400261DB1D440002345
:100F7000C5E900433146BDE8F08702B9FFDEB2FAA9
:100F800082F2002A50D1CB1B4FEA174E1FFA87F886
:100F90000126B3FBFEFC210C0EFB1C3341EA03418E
:100FA00008FB0CF38B4207D979180CF1FF3002D201
:100FB0008B4200F2E9808446C91AA3B2B1FBFEF06D
:100FC0000EFB101143EA014408FB00F8A04507D9C5
:100FD0003C1900F1FF3302D2A04500F2D980184637
:100FE000A4EB080440EA0C40BFE78B4209D9002D6E
:100FF00000F0B1800026C5E9000130463146BDE869
:10100000F087B3FA83F6002E4AD18B4202D3824294
:1010100000F2B880841A61EB030101208C46002D98
:10102000A8D0C5E9004CA5E7C2F1200320FA03F6D9
:10103000974001FA02F04FEA174ED9403043030CB3
:10104000B1FBFEF61FFA87F80EFB161143EA0143C7
:1010500006FB08F1994204FA02F409D9FB1806F1DB
:10106000FF3C80F08D80994240F28A80023E3B44F2
:101070005B1A81B2B3FBFEF00EFB103341EA034171
:1010800000FB08F38B4207D9791800F1FF3C73D2BB
:101090008B4271D902383944CB1A40EA064678E7C8
:1010A000C6F1200C03FA06F422FA0CF31C4320FAD2
:1010B0000CF701FA06F34FEA144E21FA0CF11F4324
:1010C0003B0CB1FBFEF91FFA84F80EFB191143EA41
:1010D000014109FB08FA8A4502FA06F200FA06F312
:1010E00008D9611809F1FF3048D28A4546D9A9F1DB
:1010F00002092144A1EB0A01BFB2B1FBFEF00EFBD5
:10110000101147EA014700FB08F8B84507D9E7196D
:1011100000F1FF312ED2B8452CD90238274440EADD
:101120000940A7EB0807A0FB02894F45C646494680
:101130001AD317D05DB1B3EB0E0267EB010707FAC4
:101140000CFCF2404CEA0202F740C5E900270026F9
:101150003146BDE8F0872E4628460BE70646E9E60D
:101160001846FDE64345E5D2B8EB020E69EB0401F3
:101170000138DFE70846D2E760468DE78146B9E7E8
:10118000664675E730464AE7ACF1020C394413E78E
:1011900002383C4424E700BF704700BF80B489B0E8
:1011A00000AFF860B9607A600023FB7726E0FB7F30
:1011B000BA6813441B789B00FA681A44FB7F1268D4
:1011C0009B0007F120010B4443F8102CFB7F7A6849
:1011D00013441B78002B0ED0FB7F9B0007F12002ED
:1011E000134453F8102CFB7F52429B0007F120015F
:1011F0000B4443F8102CFB7F0133FB77FB7F022B62
:10120000D5D90023FB770EE0FB7FFA7F9200F968C7
:101210000A449B0007F120010B4453F8103C136073
:10122000FB7F0133FB77FB7F022BEDD900BF00BFB3
:101230002437BD465DF8047B7047000080B588B058
:1012400004AFF8607A601A460B46FB7213463B8186
:101250000C4B1B680433FA689A420DD1FB7A9AB2A0
:101260004FF47A7302933B8901937B6800930123C7
:101270001821F86810F0A2FE002318461037BD466A
:1012800080BD00BFC87E002080B588B004AFF86084
:101290007A601A460B46FB7213463B810C4B1B6867
:1012A0000433FA689A420DD1FB7A9AB24FF47A73FA
:1012B00002933B8901937B68009301231821F8680E
:1012C00010F076FF002318461037BD4680BD00BFE2
:1012D000C87E002080B483B000AF78600023184639
:1012E0000C37BD465DF8047B7047000080B584B0C4
:1012F00000AF78600023FB600B4B1B78002B07D1FD
:101300000A4B01221A700821786800F08DF9F86004
:10131000054B1B780133DAB2034B1A70FB681BB222
:1013200018461037BD4680BDCC7E0020CD7E002003
:1013300080B584B000AF78600023FB600B4B1B7856
:10134000013BDAB2094B1A70084B1B78002B07D10E
:10135000074B00221A700021786800F065F9F860E8
:10136000FB681BB218461037BD4680BDCC7E0020FE
:10137000CD7E002080B584B000AF0346FB71002312
:10138000FB60FB7919460B481FF0F4FAFB79002B40
:1013900005D00948FFF7AAFF0346FB6004E00648B2
:1013A000FFF7C6FF0346FB60FB6818461037BD46D3
:1013B00080BD00BF804B0608BC7E002080B5A4B075
:1013C00000AF78600023C7F88C300023C7F888305E
:1013D000012387F85F3007F10803502200211846E7
:1013E0001EF0ECFD2C4800F07AF9C7F88800D7F819
:1013F0008830012B49D1294B1B78002B45D007F1B0
:101400005F0207F160031946234800F085F9C7F829
:101410008C0007F16003224A22491846FFF7BEFEFE
:1014200001233B7203237B720CF06EF902460B46DC
:10143000C7E904233B6E07EE903AB8EEE77ADFED9A
:101440001A6AC7EE267AC7ED067A7B6E07EE903AE7
:10145000B8EEE77ADFED146AC7EE267AC7ED077AB1
:10146000BB6E07EE903AB8EEE77ADFED0F6AC7EE93
:10147000267AC7ED087A0D4B1B68D3F8F80007F100
:1014800008010023002214F0BDFFD7F88C30184665
:101490009037BD4680BD00BFBC7E0020CD7E0020C1
:1014A000B87E0020B47E002000FF7F47C87E002069
:1014B00080B584B000AF78603960264A7B681360DD
:1014C00000237B81244B254A1A60234B244A5A600F
:1014D000204B1B680433204A936007F10A03194626
:1014E0001D4800F0C3F8F860FB68002B01D0FB68D2
:1014F0002BE07B8919461B481FF03CFA7B8940F69C
:101500004842934205D018481FF0D0FA4FF0FF33FD
:101510001BE0114800F0CBF8F860FB68002B01D00D
:10152000FB6812E0114B00221A70104B01225A7016
:101530000E4B02229A700E4B00221A700C4B0022A6
:101540005A700B4B00229A70002318461037BD4684
:1015500080BD00BFC87E0020BC7E00203D12040874
:10156000891204089C4B0608BC4B0608B47E002078
:10157000B87E002080B584B000AF03463960FB71AF
:101580000023FB60FB79022B08D107481FF08EFA7D
:10159000064800F057F90346FB6000E000BFFB6817
:1015A00018461037BD4680BDD84B0608BC7E0020CB
:1015B00080B483B000AF7860002318460C37BD4676
:1015C0005DF8047B704790B587B000AFF8607A6033
:1015D0001A460B46FB7213463B81FB685C68FB684E
:1015E00098683B89F97A7A68A04778617B691846E0
:1015F0001C37BD4690BD90B587B000AFF8607A60EB
:101600001A460B46FB7213463B81FB681C68FB685D
:1016100098683B89F97A7A68A04778617B691846AF
:101620001C37BD4690BD000080B584B000AF786027
:101630000B46FB70FB78FB72FB7819460A481FF0DB
:1016400099F907F10B02012331217868FFF7D3FFE5
:10165000F860FB68002B01D0FB6800E0002318460F
:101660001037BD4680BD00BFF04B060880B584B082
:1016700000AF7860396007F1080204230021786820
:10168000FFF7A1FFF860FB68002B01D0FB680AE0C0
:101690007B7A1B021AB23B7A1BB213431BB29AB27B
:1016A0003B681A80002318461037BD4680BD80B5C0
:1016B00084B000AF78600123FB7207F10B020123B5
:1016C00032217868FFF797FFF860FB68002B01D0A4
:1016D000FB6800E0002318461037BD4680BD80B58A
:1016E00084B000AF786007F10B0201231021786805
:1016F000FFF769FFF860FB68002B01D0002307E0CB
:10170000FB7A03F00103002B01D0012300E000234A
:1017100018461037BD4680BD80B58AB000AFF8606E
:10172000B9607A607B681B78002B02D16FF00103EF
:101730004AE007F1140209231021F868FFF743FF7C
:1017400038623B6A002B04D021481FF0AFF93B6A96
:101750003AE0002387F8273026E097F82730013356
:101760005B0007F12802134413F8143C1B021AB261
:1017700097F827305B00013307F128010B4413F879
:10178000143C1BB21343FB83B7F91E3097F8272094
:1017900042F2666101FB03F1BB6843F8221097F83F
:1017A0002730013387F8273097F82730022BD4D918
:1017B0003B7D1AB2BB681A843B7F1AB2BB685A845D
:1017C0007B6801221A70002318462837BD4680BD69
:1017D0000C4C060890B583B000AF0446084611468D
:1017E0001A462346FB800346BB800B467B8013468C
:1017F0003B80B7F90220B7F904309A4207DCB7F909
:101800000420B7F900309A4201DC002308E0FB888D
:10181000B7F90420194604481FF0ACF84FF0FF3325
:1018200018460C37BD4690BD2C4C060880B582B0DA
:1018300000AF786078680DF009FF00BF0837BD463B
:1018400080BD000080B588B000AF78607868FFF791
:101850002EFF0346FB83B7F91E30002B06D0B7F9E5
:101860001E301946A8481FF085F843E10120FFF714
:10187000DDFF07F10C02022300217868FFF7A3FEC9
:101880000346FB83B7F91E30002B06D0B7F91E3094
:1018900019469E481FF06EF82CE13B7B19B2482395
:1018A000482240F20310FFF795FF0346002B40F05B
:1018B0000A817B7B19B20C230C224FF48270FFF754
:1018C00089FF0346002B40F0008101217868FFF773
:1018D000ABFE0346FB83B7F91E30002B06D0B7F9E9
:1018E0001E3019468A481FF045F803E10A20FFF729
:1018F0009DFF07F10C02092310217868FFF763FEB2
:101900000346FB83B7F91E30002B06D0B7F91E3013
:10191000194680481FF02EF8ECE07B7B1AB2BB7BA7
:101920001B021BB21343BB83FB7B1AB23B7C1B0223
:101930001BB213437B837B7C1AB2BB7C1B021BB2A2
:1019400013433B833B7B19B20123012240F2032066
:10195000FFF740FF0346002B40F0B980B7F91C1099
:1019600047F6EF736C4A4FF40170FFF733FF0346FD
:10197000002B40F0AE80B7F91A1047F6EF73664AB5
:1019800040F20620FFF726FF0346002B40F0A3801D
:10199000B7F9181047F6EF735F4A4FF40270FFF77C
:1019A00019FF0346002B40F098803B7D1BB203F0EB
:1019B000080319B20023002240F20A20FFF70AFFB1
:1019C0000346002B40F08B8010217868FFF72CFE37
:1019D0000346FB83B7F91E30002B06D0B7F91E3043
:1019E00019464E481EF0C6FF84E00920FFF71EFF8F
:1019F00007F10C02092310217868FFF7E4FD034684
:101A0000FB83B7F91E30002B06D0B7F91E301946FC
:101A100040481EF0AFFF6DE07B7B1AB2BB7B1B0220
:101A20001BB21343BB83FB7B1AB23B7C1B021BB272
:101A300013437B837B7C1AB2BB7C1B021BB2134318
:101A40003B833B7B19B20123012240F20D20FFF7BB
:101A5000C1FE0346002B44D1B7F91C10C8236FF018
:101A6000C70240F20E20FFF7B5FE0346002B3AD125
:101A7000B7F91A10C8236FF0C7024FF40470FFF7CC
:101A8000A9FE0346002B30D1B7F918106FF0C70339
:101A9000234A40F21220FFF79DFE0346002B26D179
:101AA0003B7D1BB203F0080319B2002300224FF460
:101AB0000570FFF78FFE0346002B1AD119481EF060
:101AC000F5FF00231BE000BF14E000BF12E000BFE1
:101AD00010E000BF0EE000BF0CE000BF0AE000BF56
:101AE00008E000BF06E000BF04E000BF02E000BF66
:101AF00000E000BF0C481EF0D9FF4FF0FF3318463E
:101B00002037BD4680BD00BF504C0608784C060803
:101B1000B04C0608F04C06081180FFFF284D06085F
:101B200018FCFFFF684D0608844D060880B485B098
:101B300000AF786039607B681B68FB603B681A689F
:101B40007B681A603B68FA681A6000BF1437BD46AC
:101B50005DF8047B704780B485B000AF7860396071
:101B60007B681B68FB603B681A687B681A603B688F
:101B7000FA681A6000BF1437BD465DF8047B7047F1
:101B800080B485B000AF786039600023FB6014E05A
:101B9000FB689B007A6813441B68002B08D03B68E5
:101BA0005A1CFB689B0079680B441B689A4201D160
:101BB000FB6807E0FB680133FB60FA683B689A4208
:101BC000E6DB002318461437BD465DF8047B7047FA
:101BD00080B588B000AF87ED030AB86079603A60DD
:101BE0003B68BB610023FB6114E0FB699B007A68E2
:101BF00013441B68002B07D0FB699B007A681344D1
:101C00001A6801321A6002E0BB69013BBB61FB69E3
:101C10000133FB61FA693B689A42E6DB3968786810
:101C2000FFF7AEFF78617B699B007A68134401225D
:101C30001A607B699B00BA681344FA681A60BA6933
:101C40003B689A4222DABB690133BB611EE07B69C3
:101C50009B00BA68D0187B6903F18043013B9B006D
:101C6000BA6813441946FFF776FF7B699B007A68D0
:101C7000D0187B6903F18043013B9B007A681344D1
:101C80001946FFF753FF7B69013B7B617B69002BA2
:101C90002FDD7B699B00BA68134493ED007A7B6962
:101CA00003F18043013B9B00BA681344D3ED007AF3
:101CB000B4EEE77AF1EE10FAC9DC1AE07B699B001A
:101CC000BA68D0187B6901339B00BA68134419467F
:101CD000FFF741FF7B699B007A68D0187B6901336D
:101CE0009B007A6813441946FFF720FF7B69013394
:101CF0007B613B68013B7A699A4211DA7B699B0000
:101D0000BA68134493ED007A7B6901339B00BA688B
:101D10001344D3ED007AB4EEE77AF1EE10FACDD4A5
:101D2000BB68043393ED007ABB680833D3ED007AC7
:101D300037EE277ABB680C33D3ED007A77EE277A3B
:101D4000B0EE087AC7EE876AF0EE667AB0EE670A00
:101D50002037BD4680BD000080B588B004AFF86074
:101D60007A601A460B46FB7213463B810C4B1B688C
:101D70000433FA689A420DD1FB7A9AB24FF47A731F
:101D800002933B8901937B6800930123DC21F8686F
:101D900010F014F9002318461037BD4680BD00BF6F
:101DA000E07E002080B588B004AFF8607A601A4603
:101DB0000B46FB7213463B810C4B1B680433FA68DD
:101DC0009A420DD1FB7A9AB24FF47A7302933B890F
:101DD00001937B6800930123DC21F86810F0E8F997
:101DE000002318461037BD4680BD00BFE07E0020AE
:101DF00080B584B000AF78600023FB600123FB72E4
:101E00007B68986807F10B020123F221FFF7A4FF1A
:101E1000FB6818461037BD4680BD80B584B000AF62
:101E200078607B68986807F10F0201235721FFF75C
:101E3000B9FFFB7B042B02D84FF0FF330EE07B6829
:101E4000986807F10E020123A121FFF7ABFFBB7BCE
:101E5000092B02D84FF0FF3300E00023184610375B
:101E6000BD4680BD80B584B000AF78607B6898685F
:101E700007F10F0201235321FFF794FFFB7B5BB2B5
:101E8000002B1EDA7B6898680123114A5421FFF762
:101E900089FF7B68986801230E4A5521FFF782FF6E
:101EA0007868FFF7BAFF03460B4A13600A4B1B68BA
:101EB000002B09DA064B00221A70054B00225A70DB
:101EC00002E006481EF0F2FD1037BD4680BD00BF9F
:101ED000D07E0020D17E002000700020A04D06089A
:101EE00080B584B000AF78600023FB600023FB72F4
:101EF0007B68986807F10B0201230721FFF72CFF8D
:101F00000323FB727B68986807F10B020123F12120
:101F1000FFF722FFA523FB727B68986807F10B028D
:101F20000123E021FFF718FF4423FB727B689868C8
:101F300007F10B020123E221FFF70EFF2423FB72BE
:101F40007B68986807F10B020123E321FFF704FF88
:101F50000923FB727B68986807F10B020123E421D7
:101F6000FFF7FAFE7C23FB727B68986807F10B028F
:101F70000123E521FFF7F0FE7E23FB727B68986862
:101F800007F10B020123E621FFF7E6FEC023FB72F7
:101F90007B68986807F10B020123E721FFF7DCFE5D
:101FA0001223FB727B68986807F10B02012318214A
:101FB000FFF7D2FE2323FB727B68986807F10B02C0
:101FC00001236621FFF7C8FE2423FB727B68986813
:101FD00007F10B0201236C21FFF7BEFE2523FB72E4
:101FE0007B68986807F10B0201236D21FFF7B4FEAF
:101FF0000623FB727B68986807F10B020123B3216B
:10200000FFF7AAFE0023FB727B68986807F10B02BA
:102010000123D321FFF7A0FEE423FB727B689868BD
:1020200007F10B020123D421FFF796FE0823FB7270
:102030007B68986807F10B0201235C21FFF78CFE97
:102040004023FB727B68986807F10B020123012192
:10205000FFF782FEB323FB727B68986807F10B02DF
:1020600001232A21FFF778FE0123FB727B68986821
:1020700007F10B020123A621FFF76EFECA23FB72B4
:102080007B68986807F10B020123A821FFF764FE23
:10209000D623FB727B68986807F10B020123A92104
:1020A000FFF75AFE1923FB727B68986807F10B0251
:1020B00001230521FFF750FEFF23FB727B68986820
:1020C00007F10B020123B921FFF746FEF423FB724F
:1020D0007B68986807F10B020123E121FFF73CFEC2
:1020E000FB6818461037BD4680BD000080B584B03F
:1020F00000AF78603960234A7B681360224B234A23
:102100001A60214B224A5A601E4B1B6804331E4A38
:102110009360012210211F480FF0B6FA022013F03D
:10212000ECFF194B986807F10F020123FC21FFF720
:1021300039FE154B986807F10E020123FD21FFF7C8
:1021400031FEFB7B1946BB7B1A460F4B9B6812483E
:102150001EF010FCFB7B202B02D1BB7B922B05D009
:102160000E481EF0A3FC4FF0FF3306E00648FFF7D1
:102170003FFE0548FFF7B4FE002318461037BD4662
:1021800080BD00BFE07E0020D47E0020591D0408E1
:10219000A51D040800080240BC4D0608DC4D0608D9
:1021A00080B582B000AF00237B60FA1C0123E721D9
:1021B0001348FFF7F7FD7860124B1B78002B13D103
:1021C000FB7803F00103002B0BD1FB7843F00103F4
:1021D000DBB2FB70FA1C0123E7210948FFF7BCFDC5
:1021E0007860094B01221A70064B1B780133DAB272
:1021F000044B1A707B6818460837BD4680BD00BF87
:10220000D47E0020E47E0020E57E002080B582B0F0
:1022100000AF00237B60154B1B78013BDAB2134BF8
:102220001A70FA1C0123E7211148FFF7BBFD786003
:102230000E4B1B78002B13D1FB7803F00103002B0E
:102240000BD0FB7823F00103DBB2FB70FA1C0123F7
:10225000E7210748FFF780FD7860064B00221A70DF
:102260007B6818460837BD4680BD00BFE47E00206D
:10227000D47E0020E57E002080B584B000AF034608
:10228000FB710023FB60FB79194609481EF072FBC5
:10229000FB79002B03D0FFF783FFF86002E0FFF724
:1022A000B5FFF860FB6818461037BD4680BD00BF1B
:1022B000F84D06082DE9B0439AB000AF786007F1F9
:1022C00008035022002118461DF078FE4FF000034D
:1022D0007B664FF000033B664FF00003FB654FF059
:1022E0000003BB656D4B1B78002B00F0D1806C4860
:1022F000FFF7B8FD08233B7203237B720BF004FA4F
:1023000002460B46C7E90423D7E904236549C1E91E
:102310000023654B1B68002BC0F2BA80634B1B780F
:1023200023F080035B4207EE903AF8EEE77A9FEDE8
:10233000607A67EE877AC7ED197A5C4B1B78DB0908
:10234000DBB2012B05D1D7ED197AF1EE677AC7ED33
:10235000197A564B5B7823F080035B4207EE903A84
:10236000F8EEE77A9FED527A67EE877AC7ED187A32
:102370004E4B5B78DB09DBB2012B05D1D7ED187A28
:10238000F1EE677AC7ED187A4A4BD3E9002313437D
:1023900006D1444BD3E900234649C1E9002377E045
:1023A000404BD3E90001434BD3E90023B0EB0208D3
:1023B00061EB030940464946FEF72EFD06EE900A02
:1023C00097ED197AC7EE267A9FED3B7A67EE877A0A
:1023D00005223A493A48B0EE670AFFF7F9FB87ED64
:1023E000170A304BD3E90001324BD3E90023841A9A
:1023F00061EB030520462946FEF70EFD06EE900A26
:1024000097ED187AC7EE267A9FED2B7A67EE877ADA
:1024100005222C492C48B0EE670AFFF7D9FB87ED5F
:10242000160A2A4B1B680133284A1360274B1B6886
:10243000052B09D1264B1B68002B05D1234B00220D
:102440001A60234B01221A60204B1B68052B02D116
:102450001E4B00221A601E4B1B68002B04D0FB6D24
:10246000BB61BB6DFB6103E07B6EBB613B6EFB61DF
:10247000184B1B68D3F8F80007F10801002300226D
:1024800013F0C0FF074BD3E900230A49C1E9002339
:10249000002318466837BD46BDE8B083E57E0020BE
:1024A000D47E0020F07E002000700020D07E00202E
:1024B000747C343BF87E002000007A44147F0020B6
:1024C000007F00203C7F0020287F0020EC7E002041
:1024D000E87E0020E07E002080B483B000AF78600A
:1024E000002318460C37BD465DF8047B704700009A
:1024F00080B584B000AF03463960FB710023FB60F8
:10250000FB79022B1FD1144B986807F10B020123B2
:10251000FC21FFF747FC104B986807F10A020123E2
:10252000FD21FFF73FFCFB7A202B02D1BB7A922BD7
:1025300005D00A481EF0BAFA4FF0FF33FB60084896
:102540001EF0B4FA03E007481EF014FA00BFFB685F
:1025500018461037BD4680BDD47E0020184E0608B0
:10256000384E0608584E060880B483B000AF786035
:10257000002318460C37BD465DF8047B7047000009
:1025800080B588B004AFF8607A601A460B46FB72DB
:1025900013463B810C4B1B680433FA689A420DD1F9
:1025A000FB7A9AB24FF47A7302933B8901937B686A
:1025B000009301237021F8680FF000FD00231846F6
:1025C0001037BD4680BD00BF647F002080B588B055
:1025D00004AFF8607A601A460B46FB7213463B81E3
:1025E0000C4B1B680433FA689A420DD1FB7A9AB2FD
:1025F0004FF47A7302933B8901937B680093012324
:102600007021F8680FF0D4FD002318461037BD463E
:1026100080BD00BF647F002080B582B000AF7860CD
:1026200078680DF013F800BF0837BD4680BD80B54F
:1026300084B000AF78600023FB608023FB727B686E
:10264000986807F10B0201234021FFF799FF02462A
:10265000FB681343FB60FB6818461037BD4680BD1E
:1026600080B584B000AF78600023FB607868FFF726
:10267000DEFFF860FB68002B01D0FB681DE0002343
:10268000FB722223BB727B68986807F10B0201235F
:102690004121FFF775FFF860FB68002B09D17B68CB
:1026A000986807F10A0201234221FFF769FFF860E9
:1026B00002E004481EF0FAF9FB6818461037BD46E0
:1026C00080BD00BF784E0608F0B593B006AF07F1A5
:1026D000080484E8030011461A460B46FB711346B2
:1026E000BB71BB7903F00103B44AD35C3B75FB7942
:1026F0001B09DBB21A46B24B33F81230FB82FB796E
:1027000003F00F03AE4A32F813303B83BB68FB6122
:10271000FB683B62BB684FF6FF72934205D1A94844
:102720001EF0C4F94FF6FF7343E13B7D002B05D04B
:10273000FB8A002B02D03B8B002B09D13B7D194635
:10274000FB8A1A463B8BA0481EF014F9002330E1A7
:10275000BB684FF4C84202FB03F33A7DB3FBF2F3CC
:10276000FA8AB3FBF2F3FB61FB684FF4C84202FB49
:1027700003F33A7DB3FBF2F33A8BB3FBF2F33B6224
:102780003B6A07EE903AB8EE677AFB6907EE903A3B
:10279000F8EE677ADFED8D6A67EEA67AB4EEE77A37
:1027A000F1EE10FA2CD59FED8A7AFB6907EE903A8C
:1027B000F8EE677A27EE277ADFED866A3B6A07EE46
:1027C000903AF8EE677A66EEA77A77EE277AC7ED49
:1027D0000A7A3A6AFB69B2FBF3F307EE903AF8EE35
:1027E000677A9FED7D7A77EEC77A9FED7C7A67EE08
:1027F000877AB7EE007A77EE877AC7ED097AABE091
:102800003B6A07EE903AB8EE677AFB6907EE903ABA
:10281000F8EE677ADFED726A67EEA67AB4EEE77AD1
:10282000F1EE10FA2CD59FED6A7AFB6907EE903A2B
:10283000F8EE677A27EE277ADFED666A3B6A07EEE5
:10284000903AF8EE677A66EEA77A77EE277AC7EDC8
:102850000A7A3A6AFB69B2FBF3F307EE903AF8EEB4
:10286000677A9FED5D7A77EEC77A9FED5E7A67EEC5
:10287000877AB7EE007A77EE877AC7ED097A6BE050
:102880003B6A07EE903AB8EE677AFB6907EE903A3A
:10289000F8EE677ADFED546A67EEA67AB4EEE77A6F
:1028A000F1EE10FA2CD59FED4A7AFB6907EE903ACB
:1028B000F8EE677A27EE277ADFED4C6A3B6A07EE7F
:1028C000903AF8EE677A66EEA77A77EE277AC7ED48
:1028D0000A7A3A6AFB69B2FBF3F307EE903AF8EE34
:1028E000677A9FED437A77EEC77ABAEE047A67EE9D
:1028F000877AB7EE007A77EE877AC7ED097A2BE010
:102900009FED337AFB6907EE903AF8EE677A27EE8F
:10291000277ADFED366A3B6A07EE903AF8EE677A7F
:1029200066EEA77A77EE277AC7ED0A7A3A6AFB69EC
:10293000B2FBF3F307EE903AF8EE677A9FED2D7A4B
:1029400077EEC77A9FED2C7A67EE877AB7EE007A3A
:1029500077EE877AC7ED097A97ED0A7AD7ED097A8B
:1029600067EE277AC7ED0B7AD7ED0B7AF5EEC07AD2
:10297000F1EE10FA05D54FF00003FB621F481EF080
:1029800095F8F86AFDF7E0FD02460B46B968F8686D
:10299000FC8A3D8B3E7D0496039502940190009144
:1029A00017481DF0E7FFD7ED0B7AFDEEE77A17EE3B
:1029B000903A18463437BD46F0BD00BFB0770608E0
:1029C000B4770608904E0608B84E0608E17A943EA1
:1029D00098BED73A16A584B9E17A94BE00000000EB
:1029E0003333B33EF0A7BA40CDCCCC3E5BCE25BB53
:1029F00085EB91BE2B8796BE4260B5BFEC4E0608B4
:102A0000044F060880B584B000AF786039600023B9
:102A10007B7200237B810023FB607B68002B04D149
:102A200038481EF043F8FB6868E07B68986807F157
:102A3000080201234221FFF7C9FD3B7A1B09DBB2E3
:102A40001A46314B33F812307B813B684EF66022D8
:102A500093421BD97B89202B0AD93B7A5BB203F0C6
:102A60000F035BB263F05F035BB2DBB27B722BE000
:102A70007B89012B28D93B7A5BB203F00F035BB251
:102A800043F020035BB2DBB27B721DE03B68632B3B
:102A90001AD87B891F2B0AD83B7A5BB203F00F034D
:102AA0005BB263F05F035BB2DBB27B720CE07B89ED
:102AB000FF2B09D83B7A5BB203F00F035BB263F0E4
:102AC0003F035BB2DBB27B727B7A002B15D0012314
:102AD000FB607B68986807F1090201234221FFF738
:102AE0004FFD79897B7A1B09DBB21A46064B33F816
:102AF00012301A4605481DF03DFFFB681846103796
:102B0000BD4680BD444F0608B47706085C4F0608F2
:102B100080B584B000AF7860396000237B720023F9
:102B20007B810023FB607B68002B04D137481DF0BC
:102B3000BDFFFB6866E07B68986807F10802012327
:102B40004221FFF743FD3B7A03F00F03304A32F88E
:102B500013307B813B684EF6602293421BD97B8900
:102B6000202B0AD93B7A5BB223F00F035BB243F010
:102B70000A035BB2DBB27B722BE07B89012B28D985
:102B80003B7A5BB223F00F035BB243F002035BB20C
:102B9000DBB27B721DE03B68632B1AD87B891F2B4D
:102BA0000AD83B7A5BB223F00F035BB243F00A030F
:102BB0005BB2DBB27B720CE07B89FF2B09D83B7ADE
:102BC0005BB223F00F035BB243F00C035BB2DBB2EA
:102BD0007B727B7A002B14D00123FB607B689868A2
:102BE00007F1090201234221FFF7CAFC79897B7AA8
:102BF00003F00F03064A32F813301A4605481DF059
:102C0000B9FEFB6818461037BD4680BD444F060824
:102C1000B4770608944F060880B586B000AF786098
:102C20000023FB7300237B617B68986807F10F0228
:102C300001234321FFF7CAFC0123BB73FA7BBB7B53
:102C40001340DBB2002B0DD148481DF02FFF7868F0
:102C5000FFF706FD7B68986807F10E020123432108
:102C6000FFF78EFCFB7B5BB2002B03DB40481DF0C3
:102C70001DFF77E00023FB740023BB747B6898681A
:102C800007F10D0201235021FFF7A0FC7B68986833
:102C900007F10C0201235121FFF798FC3B7B3B829B
:102CA0003B8A1B021AB27B7B1BB213431BB23B82D3
:102CB0003B8A304A13607B68986807F10B02012356
:102CC0005221FFF783FC7B68986807F10A02012311
:102CD0005321FFF77BFCBB7A3B823B8A1B021AB273
:102CE000FB7A1BB213431BB23B823B8A214A5360DF
:102CF0007B68986807F10F0201234221FFF766FC09
:102D0000FB7BFB741B4B1B6819467868FFF77AFE48
:102D10007861184B5B6819467868FFF7F9FE024640
:102D20007B6913437B617B69002B04D012491348F4
:102D30001DF020FE16E07B68986807F10F02012362
:102D40004121FFF743FCFB7BBB74BB7CFA7C094948
:102D500003C9FFF7B9FC07EE900AF8EEE77A084BD3
:102D6000C3ED007A1837BD4680BD00BFCC4F0608C2
:102D7000FC4F06086C7F0020D47706083850060800
:102D8000507F002000000000B0B592B000AF786026
:102D9000396000237B6407F10803282200211846CC
:102DA0001DF00CF95648FFF737FF7B6C01337B644D
:102DB0006420FFF731FC534B1B687A6C9A420CDDA0
:102DC000504B1B687A6CD31A013B4F4A12689B0028
:102DD00007F148010B44403B1A604A4B1B687A6C70
:102DE000D31A0A2BDEDD4FF000033B640023FB63A4
:102DF00010E0FB6B9B0007F148021344403BD3ED0E
:102E0000007A97ED107A77EE277AC7ED107AFB6B90
:102E10000133FB63FB6B092BEBDD97ED107AF2EED0
:102E2000046AC7EE267AC7ED0C7A4FF00003BB6345
:102E300000237B6336E07B6B9B0007F14802134461
:102E4000403B93ED007AD7ED0C7A77EE677A17EE78
:102E5000900AFDF779FB02460B469FED271B43ECDA
:102E6000102B1FF0E5FE51EC100B4FF00002274B2A
:102E7000FDF7ECFC02460B4614461D46B86BFDF709
:102E800063FB02460B4620462946FDF7FFF9024642
:102E90000B4610461946FDF7A7FE0346BB637B6B46
:102EA00001337B637B6B0A2BC5DDD7ED0E7A9FED7B
:102EB000187AF4EEC77AF1EE10FA08DCD7ED0C7A46
:102EC0009FED137AF4EEC77AF1EE10FA05D51148AA
:102ED0001DF050FD4FF0FF330AE00F4BD3ED006AB9
:102EE00097ED0C7AC6EE877A3B68C3ED007A002333
:102EF00018464837BD46B0BD000000000000004045
:102F0000587F002008700020507F002000002440DF
:102F10000000C842545006080C70002080B582B0F2
:102F200000AF78603960184A7B681360174B184A05
:102F30001A60164B174A5A60134B1B680433134A26
:102F40009360124B98680123134A9221FFF73EFBCE
:102F5000114B1B7819460D4B9A6892230F481DF0B0
:102F600009FD0D4B1B78E02B05D00D481DF09EFD93
:102F70004FF0FF3303E00548FFF772FB00231846CC
:102F80000837BD4680BD00BF647F0020587F002009
:102F900081250408CD250408547F002074500608BC
:102FA0009450060880B582B000AF00237B600123F7
:102FB000FB700C4B1B78002B09D1FA1C0123432119
:102FC0000948FFF7DDFA7860084B01221A70054BBB
:102FD0001B780133DAB2034B1A707B681846083746
:102FE000BD4680BD687F0020587F0020697F00209B
:102FF00080B582B000AF00237B600023FB700C4BD8
:103000001B78013BDAB20A4B1A70094B1B78002B74
:1030100009D1FA1C012343210648FFF7B1FA786071
:10302000054B00221A707B6818460837BD4680BDE4
:10303000687F0020587F0020697F002080B584B021
:1030400000AF0346FB710023FB60FB79194609487A
:103050001DF090FCFB79002B03D0FFF7A3FFF86075
:1030600002E0FFF7C5FFF860FB6818461037BD4661
:1030700080BD00BFB050060880B596B000AF786044
:1030800007F108035022002118461CF097FF1E4B41
:103090001B78002B33D01D48FFF7BEFD03233B7286
:1030A00003237B720AF030FB02460B46C7E9042378
:1030B000174B93ED007A174BD3ED007A67EE277A22
:1030C000C7ED067A124B1B68FB61134B1B6807EEBA
:1030D000903AF8EE677AC7ED087A0F4B5B6807EE17
:1030E000903AF8EE677AC7ED097A0C4B1B68D3F873
:1030F000F80007F108010023002213F083F90023F0
:1031000018465837BD4680BD697F0020587F002093
:10311000507F0020047000206C7F0020647F00201E
:1031200080B483B000AF7860002318460C37BD46EA
:103130005DF8047B7047000080B59AB000AF03468D
:103140003960FB7100237B6607F1100350220021D8
:1031500018461CF033FFFB79023B062B00F29A80E5
:1031600001A252F823F000BF853104088D31040814
:103170000B3204089532040895320408953204088D
:103180004332040848481DF091FC88E047481DF090
:103190008DFC4748FFF764FA0123FB730023BB73E0
:1031A00007F10F02012343214148FFF7E9F94149A3
:1031B0003F48FFF7E9FD786607F10E02012343213E
:1031C0003B48FFF7DDF97B6E002B65D13A4B1B685E
:1031D000D3F894312033374A12681A60364B1B6893
:1031E000D3F894315B6AB3F1FF3F07D0324B1B68D1
:1031F000D3F894315A6A01325A624DE02E4B1B6863
:10320000D3F8943101225A6246E02B4B1B68D3F865
:1032100094315B6AB3F1FF3F40D0274B1B68D3F872
:10322000943120331B681A46224B1A60214B1B68CD
:103230001846FDF789F902460B4620481DF09AFB17
:103240002CE003233B74FF237B740AF05DFA0246F3
:103250000B46C7E90623174B1B683B62164B1B68DE
:10326000D3F894315B6A07EE903AF8EE677AC7EDCF
:10327000097A4FF00003BB624FF00003FB620E4B74
:103280001B68D3F8F80007F110010023002213F0A7
:10329000B9F804E000BF02E000BF00E000BF7B6EB1
:1032A00018466837BD4680BDD0500608EC50060869
:1032B000587F002004700020647F0020045106081D
:1032C00080B483B000AF7860002318460C37BD4649
:1032D0005DF8047B7047000080B586B000AF786071
:1032E0004FF0FF333B6100237B610023FB60002331
:1032F000BB607B68BB60F123FB6001F09DF9124B62
:10330000F222DA600121114801F0B2F97B699B00D9
:1033100003F1006303F500337A699200B9680A4447
:1033200012681146184601F0D3F97B6901337B61BD
:103330007B69FA689A42E9D801F08CF900BF184617
:103340001837BD4680BD00BF003C024000000208A7
:1033500080B483B000AF7860084A7B6813607B68F4
:1033600001221A707B6801225A707B686422DA801D
:1033700000BF0C37BD465DF8047B7047D4B5012013
:1033800080B500AF0022042102480EF07DF900BF95
:1033900080BD00BF0008024080B500AF01220421BB
:1033A00002480EF071F900BF80BD00BF0008024066
:1033B00080B582B000AF78607B6893F820301A4601
:1033C000084B53F822007B6893F820301A46064BCE
:1033D00033F81230012219460EF056F900BF0837B3
:1033E000BD4680BD187000201470002080B582B0EA
:1033F00000AF78607B6893F820301A46084B53F88A
:1034000022007B6893F820301A46064B33F81230BE
:10341000002219460EF038F900BF0837BD4680BDBE
:10342000187000201470002080B58AB000AF78605A
:103430000023FB8400233B6212E07A683B6A04337A
:103440009B0013445B68DB7F002B06D0124A3B6A6B
:1034500032F81320FB8C1343FB843B6A01333B623D
:103460007B681B781A463B6A9342E6DB01233B618B
:10347000FB8CFB6000237B6107F10C0319460748B6
:103480000DF04EFF00224FF4806104480EF0FCF86E
:1034900000BF2837BD4680BD1C70002000080240D8
:1034A00080B588B000AF786001224FF48061094890
:1034B0000EF0EAF800233B610823FB6000237B61E8
:1034C00007F10C03194603480DF02AFF00BF20370F
:1034D000BD4680BD0008024080B58CB000AF78606A
:1034E00000237B614C4B1B6B4B4A43F0040313637B
:1034F000494B1B6B03F004037B617B6900233B6139
:10350000454B1B6B444A43F004031363424B1B6B54
:1035100003F004033B613B690023FB603E4B1B6BE4
:103520003D4A43F0040313633B4B1B6B03F004035E
:10353000FB60FB680123FB6100233B620423BB614A
:1035400007F11803194635480DF0EAFEFFF718FF9A
:103550000123FB6100233B62002387F82F301FE02B
:1035600097F82F302E4A32F81330BB6197F82F307E
:103570002C4A52F8233007F11802114618460DF074
:10358000CFFE97F82F307A6804339B0013445B68B2
:103590001846FFF70DFF97F82F30013387F82F30CB
:1035A0007B681B7897F82F209A42D9D37868FFF769
:1035B00077FF002387F82F3022E097F82F301A4A40
:1035C00032F81320194B5A6197F82F30164A32F807
:1035D0001320164B5A6197F82F30154AD356002204
:1035E0000F2118460CF08AFF97F82F30104AD35657
:1035F00018460CF0ADFF97F82F30013387F82F30C5
:103600007B681B7897F82F209A42D6D300BF00BF63
:103610003037BD4680BD00BF003802400008024080
:1036200014700020187000201C700020003C014025
:103630002070002080B584B000AF78600023FB814B
:103640000023BB6012E07A68BB6804339B0013441C
:103650005B68DB7F002B06D00C4ABB6832F8132076
:10366000FB891343FB81BB680133BB607B681B781C
:103670001A46BB689342E6DBFB89002219460448E0
:103680000EF002F800BF1037BD4680BD1C70002050
:103690000008024080B584B000AF78600023FB8151
:1036A0000023BB6012E07A68BB6804339B001344BC
:1036B0005B68DB7F002B06D00C4ABB6832F8132016
:1036C000FB891343FB81BB680133BB607B681B78BC
:1036D0001A46BB689342E6DBFB890122194604487F
:1036E0000DF0D2FF00BF1037BD4680BD1C7000201A
:1036F0000008024080B584B000AF78600023FB73FF
:103700000BE0FB7B7A6804339B0013445B6818462C
:1037100000F00EF8FB7B0133FB737B681B78FA7BB0
:103720009A42EED300BF00BF1037BD4680BD0000F7
:1037300080B588B000AF78607B68DB7F002B45D018
:103740000023BB60234B1B6B224A43F0040313632B
:10375000204B1B6B03F00403BB60BB687B6893F8D2
:1037600020301A461C4B33F812201C4B5A617B68E0
:1037700093F820301A46184B33F81220174B5A6131
:10378000174B3B6100237B617B6893F820301A461E
:10379000114B33F81230FB6007F10C031946114846
:1037A0000DF0BEFD7B6893F820301A460E4B9B56F9
:1037B00000220F2118460CF0A1FE7B6893F8203000
:1037C0001A46094B9B5618460CF0B4FE00BF203732
:1037D000BD4680BD003802401C700020003C014006
:1037E00000001110000802402070002080B584B055
:1037F00000AF78600023FB730BE0FB7B7A68043337
:103800009B0013445B68184600F00EF8FB7B013305
:10381000FB737B681B78FA7B9A42EED300BF00BF34
:103820001037BD4680BD000080B582B000AF786023
:103830007B68DB7F002B08D07B6893F820301A462A
:10384000044B9B5618460CF083FE00BF0837BD465C
:1038500080BD00BF2070002080B584B000AF7860CC
:103860000FF0D6FE03460B4AA2FB03239B0DFB6021
:103870000023BB6002E0BB680133BB607B68FA6871
:1038800002FB03F2BB689A42F5D800BF00BF1037B5
:10389000BD4680BD6BCA5F6B80B582B000AF7860FB
:1038A00078680BF0D3FE00BF0837BD4680BD00002E
:1038B00080B582B000AF0023FB710E4B1B68002B5C
:1038C00009D00C4B1B680C4A10460433542219468D
:1038D0001CF066FB04E009481DF0E8F80123FB71C9
:1038E000FB79002B14BF01230023DBB218460837F5
:1038F000BD4680BD847F002088BD01202051060880
:1039000080B588B002AFF860B9601346FB80FB68F1
:1039100093F821301A46542303FB02F3134A9818F4
:10392000FB681B7E9BB25B0099B2FB8842F210726F
:103930000092BA680EF01EF803467B617B69002B8B
:103940000FD100BFFB6893F821301946074A542372
:1039500003FB01F313441B689B6903F00203022B72
:10396000F0D07B6918461837BD4680BD88BD012060
:1039700080B58CB004AFF8607A601A460B467B8144
:1039800013463B81FB6893F821301A46542303FB0E
:1039900002F31C4A1344BB61FB681B7E9BB25B00B5
:1039A000FB820123FB61FA8A79893B894FF4FA6033
:1039B000039002937B680193012300930B46B9693E
:1039C00011481CF0D7FF7A89F98A4FF4FA63029301
:1039D0003B8901937B6800930123B8690EF0EEFAEE
:1039E00003467B757B7D194608481CF0C3FF7B7D31
:1039F000002B01D10023FB61FB6918462037BD462F
:103A000080BD00BF88BD01203C51060894510608C6
:103A100080B588B002AFF860B9601346FB80FB68E0
:103A200093F821301A46542303FB02F31C4A9818DA
:103A3000FB681B7E9BB25B0099B2FB8864220092FC
:103A4000BA680EF095F80346002B14BF012300233B
:103A5000DBB27B617B69002B0FD100BFFB6893F861
:103A6000213019460E4A542303FB01F313441B680B
:103A70009B6903F00203022BF0D07B69002B09D075
:103A8000FB6893F821301A46FB681B7E796905486C
:103A90001CF070FF7B6918461837BD4680BD00BF1B
:103AA00088BD0120C051060880B58CB004AFF86015
:103AB0007A601A460B467B8113463B81FB6893F87C
:103AC00021301A46542303FB02F31C4A1344BB6102
:103AD000FB681B7E9BB25B00FB820123FB61FA8AC1
:103AE00079893B894FF4FA60039002937B680193D4
:103AF000012300930B46B96911481CF03BFF7A89FA
:103B0000F98A4FF4FA6302933B8901937B6800932F
:103B10000123B8690EF04CFB03467B757B7D19468B
:103B200008481CF027FF7B7D002B01D10023FB619F
:103B3000FB6918462037BD4680BD00BF88BD012007
:103B4000D85106082C52060880B483B000AF034653
:103B5000FB7100BF0C37BD465DF8047B7047000069
:103B600080B582B000AF78607B6893F821301A4648
:103B7000542303FB02F3044A134418460DF0B6FD28
:103B800000BF0837BD4680BD88BD012080B582B02A
:103B900000AF03463960FB800B4A3B6813600B4A59
:103BA000FB8813800A4B1B68002B06D0084B1B6850
:103BB00003F58273074A136001E005F0ADFF0023AF
:103BC00018460837BD4680BD7C7F0020807F0020DE
:103BD000847F0020E8BC012080B582B000AF064B96
:103BE0001B687B607B68002B01D07B68984700BF17
:103BF0000837BD4680BD00BF7C7F002080B487B001
:103C000000AFF8600B467A60FB720123FB75FB7A0C
:103C1000002B0ED1FB7A0A4AD25C7B681A70FB7AC1
:103C2000084AD25C7B685A707B6803225A80002362
:103C3000FB75FB7D18461C37BD465DF8047B70475D
:103C400010700020787F002080B500AF024815F08A
:103C50008FFC00BF80BD00BF74B5012080B584B06B
:103C600000AF78600B46FB70FB781946786815F05A
:103C7000AFFCF860FB78012202FA03F31A46104BFE
:103C80001B6813430E4A13600D4B1A680D4B1B68DB
:103C90009A4211D10A4B00221A600B4B1B6843F069
:103CA0000103094A1360F86815F0C9FC0346022BAA
:103CB00002D07868FFF79AFD00BF1037BD4680BD7F
:103CC000907F00208C7F0020887F002080B590B0FE
:103CD00000AF7860786815F06EFC034687F83330E3
:103CE00007F124031946786815F0BCFB034687F8F2
:103CF0003F3097F83F30002B69D197F82430202BC4
:103D000013D0202B14DC102B0CD0102B10DC002B2C
:103D100002D0022B03D00BE0334BBB630AE0334BE2
:103D2000BB6307E0324BBB6304E0324BBB6301E093
:103D3000314BBB6397F83310FB8C1A46BB6B2F4893
:103D40001CF018FE3B8D002B04D03B8D19462C48EF
:103D50001CF010FE786815F022FC0346C92B32D106
:103D600007F10C031946786815F0A5FD034687F89E
:103D70003F3097F83F30002B1FD122481CF096FEB1
:103D800000237B6315E07B6B9B0007F1400213442B
:103D900033F8343C1A467B6B9B0007F140010B441F
:103DA00033F8323C796B18481CF0E4FD7B6B01332F
:103DB0007B637B6B052BE6DD05E097F83330194616
:103DC00012481CF0D7FD0A201CF0ECFD05E097F826
:103DD000333019460E481CF0CDFD97F83F30184699
:103DE0004037BD4680BD00BF545206085C520608ED
:103DF0006452060874520608885206089052060853
:103E0000B8520608D4520608F052060810530608A5
:103E100040530608B0B59EB002AF78600023BB6681
:103E20000023A7F86630002387F8653007F1080300
:103E30005022002118461CF0C1F8002387F86F308B
:103E40002BE197F86F301946786815F0C1FB38669A
:103E5000386E15F098FB0346002B00F01981386E80
:103E600015F0EDFB0346202B0ED197F86F40022191
:103E7000386E15F06CFC024690494FF4E26303FB88
:103E800004F30B441A600DE097F86F400021386E80
:103E900015F05DFC024689494FF4E26303FB04F32D
:103EA0000B441A6097F86F30844A4FF4E26101FBCB
:103EB00003F313441B68B3F1FF3F3DD197F86F4004
:103EC000386E15F05DFC034619467C4A4FF4E263F8
:103ED00003FB04F3134404330A461A8097F86F3047
:103EE000194677481CF046FD97F86F30734A4FF437
:103EF000E26101FB03F3134404331B8840F6B8323C
:103F0000934251D997F86F306C4A4FF4E26101FB4C
:103F100003F3134404331B8819466A481CF02AFD36
:103F200097F86F30654A4FF4E26101FB03F31344E5
:103F30004FF4C8521A6037E097F86F40386E15F0AA
:103F40001FFC034619465D4A4FF4E26303FB04F38A
:103F5000134404330A461A8097F86F4097F86F307D
:103F6000564A4FF4E26101FB03F313441B6807EE6A
:103F7000903AF8EE677A9FED547AC7EE876A16EEAC
:103F8000900AFCF7E1FA02460B4697F86F104B488F
:103F90004FF4E26505FB01F1014404310988009109
:103FA00021464A481CF0E6FC386E15F090FB0346AB
:103FB000BB6697F86F30BA6E90B2404A4FF4E26138
:103FC00001FB03F31344063302461A8097F86F305F
:103FD0004FF4E26202FB03F30833384A9918BB6ED0
:103FE0009BB2B7F8662000200090386E15F004FCF4
:103FF0000346FB65FB6D002B04D1B96E34481CF001
:10400000B9FC03E0B96E33481CF0B4FC324B1B78AA
:10401000002B3DD005233B72304B1B681B78002BD7
:1040200001D107233B7203237B7209F06DFB02462B
:104030000B46C7E9042397F86F30204A4FF4E2613A
:1040400001FB03F313441B6807EE903AB8EE677A5E
:10405000DFED1D6AC7EE267AC7ED067A97F86F3056
:10406000164A4FF4E26101FB03F3134404331B8847
:1040700007EE903AF8EE677AC7ED077A174B1B68A0
:10408000D3F8F80007F108010023002212F0BAF972
:1040900097F86F30013387F86F30786815F0B7FA0A
:1040A00003461A4697F86F309342FFF4CAAE97F86A
:1040B000653018467037BD46B0BD00BFD8B5012089
:1040C0006C5306089853060800000042CC530608BB
:1040D000FC5306081C540608797F0020847F0020CA
:1040E00080B586B000AF786039602E4A7B68136077
:1040F0002D4B3B610023FB752A4B1B681B78002B63
:1041000005D12A4B01221A80294B2A4A1A603869A4
:10411000FFF71EF9386915F07AFA0346FB7300239E
:10412000BB7514E0BB7D982202FB03F3224A1344C3
:10413000BB60BA7D214B3969B86815F067F9034651
:104140001A46FB7D1343FB75BB7D0133BB75BA7DFE
:10415000FB7B9A42E6D3FB7D002B07D118481CF06D
:10416000A5FC386915F0F6F90346FB75FB7D002BBD
:1041700003D114481CF09AFC04E0FB7D1946124858
:104180001CF0F8FB11481CF091FC11496420FFF76A
:10419000FDFC1049386915F0ABFBFB7D184618375C
:1041A000BD4680BD847F002074B5012014700020BE
:1041B0001870002000080240ECBC01207D92050828
:1041C00064540608785406087C5406088C54060883
:1041D000493C04085D3C04082DE9F0418AB004AF75
:1041E0007860254B3B61386915F011FA0346FB7383
:1041F00022481CF05BFC0023FB7530E0FB7D194678
:10420000386915F0E5F9B860B86815F0BCF90346EF
:10421000002B21D0FC7DB86815F0C1F90346984603
:10422000B86815F0C4FA0546B86815F0D9FA03461F
:104230001E46B86815F0C7FA03463B60B86815F02B
:10424000F2F9034602933B68019300962B464246DF
:1042500021460B481CF08EFBFB7D0133FB75FA7D7C
:10426000FB7B9A42CAD307481CF020FC0023184667
:104270001837BD46BDE8F08174B50120905406089A
:10428000BC5406088C54060880B58AB000AF0346BB
:10429000FB715A4B3B620023FB77002387F82730E2
:1042A000386A15F0B4F90346BB77FB79002B00F0B0
:1042B0008680534B1B78002B7AD1002387F8263059
:1042C00069E097F82630BA7F19464E481CF052FB39
:1042D00097F826301946386A15F07AF9B861B86946
:1042E00015F051F90346002B50D097F827300133D1
:1042F00087F8273097F82630012202FA03F31A468E
:10430000414B1B681343404A136097F82730012B39
:1043100007D110233B733B7B19463C481CF02AFB1A
:1043200001E020233B734FF4FA63FB8100233B82BF
:1043300000237B82B86915F032F90346C92B02D1FC
:10434000334B7B6101E000237B6107F10C031946CD
:10435000B86915F0A8F80346FB77FB7F002B08D15E
:104360003B7B022B05D12B481CF0A0FBB869FFF763
:10437000DFF9FB7F002B03D1B869FFF7A7FC05E04D
:1043800097F82630194624481CF0F4FA97F826309E
:10439000013387F8263097F82620BB7F9A4290D3C6
:1043A0001E4B1B68184608F03FFC1D4B01221A707B
:1043B000134B1B780133DAB2114B1A7018E0104B13
:1043C0001B78002B02D14FF0FF3312E00C4B1B780F
:1043D000013BDAB20A4B1A70094B1B78002B07D14C
:1043E0000E4B1B68184608F045FC0D4B00221A7056
:1043F000002318462837BD4680BD00BF74B5012094
:10440000747F0020DC5406088C7F002018550608B5
:10441000247000202855060844550608E8BC0120F1
:10442000797F002080B588B000AF78600023FB6002
:104430007B681B68FB601D4BBB611D4B1B68DB6809
:104440007B611B4B1B681B78FB740023FB77FB68AD
:10445000194618481CF08EFA7B69002B20D00023E7
:10446000BB770DE0BB7F144A32F813301A46FB6865
:104470009A4202D10123FB7706E0BB7F0133BB7771
:10448000BA7FFB7C9A42EDD3FB7F002B08D0084B10
:104490001A68B97F7B6910469847B869FFF7BAFC7C
:1044A000002318462037BD4680BD00BF74B50120EB
:1044B000D4B50120705506081C70002080B584B06A
:1044C00000AF03463960FB710023FB60FB79062BCC
:1044D00002D1FFF781FB00E000BFFB6818461037F0
:1044E000BD4680BD80B483B000AF7860002318461D
:1044F0000C37BD465DF8047B7047000080B485B082
:1045000000AF78600023FB607B68404A934206D28C
:104510007B68B3F1006F02D30023FB606FE07B6820
:104520003B4A934206D27B68384A934202D3012326
:10453000FB6064E07B68374A934206D27B68344A6A
:10454000934202D30223FB6059E07B68324A9342D4
:1045500006D87B682F4A934202D30323FB604EE0C8
:104560007B682E4A934206D87B682B4A934202D935
:104570000423FB6043E07B68294A934206D87B68AA
:10458000264A934202D90523FB6038E07B68254A1E
:10459000934206D87B68224A934202D90623FB60E5
:1045A0002DE07B68204A934206D87B681D4A9342DF
:1045B00002D90723FB6022E07B681C4A934206D89D
:1045C0007B68194A934202D90823FB6017E07B6895
:1045D000174A934206D87B68144A934202D90923AA
:1045E000FB600CE07B68134A934206D87B68104A54
:1045F000934202D90A23FB6001E00B23FB60FB68B6
:1046000018461437BD465DF8047B7047004000082B
:104610000080000800C00008FFFF0008FFFF01083D
:10462000FFFF0308FFFF0508FFFF0708FFFF09085A
:10463000FFFF0B08FFFF0D0880B582B000AF00231D
:10464000FB710CF0E9FB0346FB71FB791846083758
:10465000BD4680BD80B582B000AF0023FB710CF079
:10466000FDFB0346FB71FB7918460837BD4680BD4C
:1046700080B586B000AF78600B46FB7000237B618D
:1046800000233B610023FB607868FFF737FF786108
:10469000FB783B610D4B00221A600C4B02221A6121
:1046A0000A4A7B699360094A3B69D36007F10C03AE
:1046B000194606480CF012FD0346002B01D005F008
:1046C0002BFA00BF18461837BD4680BD947F0020E6
:1046D00080B582B000AF786039603B681A464FF011
:1046E0000003796802200CF043FB0346002B01D144
:1046F000002301E005F010FA18460837BD4680BDDA
:1047000080B584B000AF3B1D00221A605A609A60E9
:1047100048F6AB137B600E4B5B68BB600C4B9B6831
:10472000FB6001210A48FFF7A3FF7B681946084890
:10473000FFF7CEFFBB6819460648FFF7C9FFFB68C5
:1047400019460548FFF7C4FF00BF1037BD4680BDBE
:1047500000000108040001080800010880B588B0C5
:1047600004AFF8607A601A460B46FB7213463B8131
:104770000C4B1B680433FA689A420DD1FB7A9AB24B
:104780004FF47A7302933B8901937B680093012372
:104790006821F8680DF012FC002318461037BD465A
:1047A00080BD00BFB47F002080B588B004AFF86042
:1047B0007A601A460B46FB7213463B810C4B1B6812
:1047C0000433FA689A420DD1FB7A9AB24FF47A73A5
:1047D00002933B8901937B68009301236821F86869
:1047E0000DF0E6FC002318461037BD4680BD00BF23
:1047F000B47F002080B586B000AFF8607A601A46BA
:104800000B46FB721346BB7207F11702F97A0123BC
:10481000F868FFF7C9FF7B68DAB2FB7D1340DBB2B3
:10482000FB75FA7DBB7A1343DBB2FB7507F1170208
:10483000F97A0123F868FFF791FF0023184618372B
:10484000BD4680BD80B582B000AF78600B46FB707E
:10485000FB78002B07D001236FF00102002178685C
:10486000FFF7C8FF06E000236FF00102002178681F
:10487000FFF7C0FF002318460837BD4680BD000083
:1048800080B582B000AF786039600C490C481CF0EC
:1048900071F83B68DB68DBB26FF07002002178686A
:1048A000FFF7A8FF3B68DB681A46044905481CF07F
:1048B00061F8002318460837BD4680BD0C7806080D
:1048C00098550608A455060880B586B000AFF86074
:1048D000B9607A6000237B6100237B610EE0BA68D7
:1048E0007B69134419787B690133BA681A44012340
:1048F000F868FFF733FF7B6902337B617A697B6875
:104900009A42ECD300BF00BF1837BD4680BD0000FF
:1049100080B582B000AF786039600C490C481CF05B
:1049200029F83B681B7D1A460A4B53F832103B6846
:104930001B7D084ADB0013445B681A467868FFF762
:10494000C3FF002318460837BD4680BD24780608FB
:1049500098550608F877002080B584B000AF7860DD
:104960003960154915481CF005F80023FB7307F161
:104970000F0201237F217868FFF7F0FE052011F078
:10498000BCFB01217868FFF75DFF052011F0B5FB46
:1049900039687868FFF774FF80236FF08002002188
:1049A0007868FFF727FF044905481BF0E3FF002361
:1049B00018461037BD4680BD387806089855060859
:1049C000C055060880B582B000AF78607B68002BC8
:1049D00012D000224FF480510C480CF055FE0120FB
:1049E00011F08BFB01224FF4805108480CF04CFE73
:1049F000012011F082FB03E0054906481BF0BAFFD5
:104A0000002318460837BD4680BD00BF00040240A1
:104A10004C780608CC55060880B584B000AF7860A5
:104A200039602D4A7B6813602C4B2D4A1A602B4B42
:104A30002C4A5A60284B1B680433284A9360274845
:104A4000FFF7C0FF254B986807F10F0201237F2174
:104A5000FFF7AAFEFB7B194623481BF08BFF0120C2
:104A600011F04BFB1D4B986807F10E0201237E21CC
:104A7000FFF79AFEBB7B19461C481BF07BFF012009
:104A800011F03BFBFB7B182B02D1BB7BA82B02D088
:104A90004FF0FF331BE0FA7B154B5A70144B0F227B
:104AA0001A61134B0122DA60114B01225A600B4B41
:104AB0009B680F491846FFF74FFF0D4B01221A75EF
:104AC000064B9B680A491846FFF722FF0023184649
:104AD0001037BD4680BD00BFB47F0020A87F0020F6
:104AE0005D470408A9470408DC550608F455060884
:104AF000BC7F002080B483B000AF00237B600A4BF2
:104B00001B78002B02D1094B01221A70064B1B782F
:104B10000133DAB2044B1A707B6818460C37BD4675
:104B20005DF8047B704700BFB87F0020B97F00208C
:104B300080B483B000AF00237B600A4B1B78013B3D
:104B4000DAB2084B1A70074B1B78002B02D1064BC8
:104B500000221A707B6818460C37BD465DF8047B4E
:104B6000704700BFB87F0020B97F002080B584B0B7
:104B700000AF0346FB710023FB60FB79194609482F
:104B80001BF0F8FEFB79002B03D0FFF7B3FFF860B2
:104B900002E0FFF7CDFFF860FB6818461037BD460E
:104BA00080BD00BF0C56060880B483B000AF7860AB
:104BB000002318460C37BD465DF8047B70470000A3
:104BC00080B584B000AF03463960FB710023FB6001
:104BD0003B68FB60FB79062B05D12A481BF066FF7A
:104BE00000F06CF848E0284B00221A75274B9B68B0
:104BF00025491846FFF78CFEFB681B7803F00F036E
:104C0000FB72FB681B781B09DBB203F00F03002B60
:104C100031D1FB7A0F2B0BD11D4B1B68184608F0C6
:104C200003F81C4B01221A701B4B00221A7022E061
:104C3000174B1B68184608F01DF8164B00221A7017
:104C4000114AFB7A1375104B1B7D0B2B06D80F4BAB
:104C50009B680D491846FFF75BFE0CE00F491048B2
:104C60001BF088FE084B01221A75084B9B68064909
:104C70001846FFF74DFE00BF002318461037BD460B
:104C800080BD00BF24560608BC7F0020A87F0020FE
:104C9000E8BC0120BB7F0020BA7F002060780608B6
:104CA0004056060880B483B000AF786000231846F1
:104CB0000C37BD465DF8047B7047000080B500AF3F
:104CC0007E4B1B78002B00F046817D4B1B78002B20
:104CD0000CD07B4B00221A707A4B9B687A4A916801
:104CE000794AD2681846FFF7EFFD34E1774B1B781D
:104CF000082B25D8734B9868744B1B781A46744B55
:104D0000995C0123734AFFF729FD6E4B98686F4B3E
:104D10001B781A466E4B9B5C013BD9B201236E4A4D
:104D2000FFF71CFD674B9868684B1B781A46684B69
:104D30009B5C023BD9B20123674AFFF70FFDFDE000
:104D4000624B1B78082B2CD9604B1B78112B28D871
:104D50005C4B98685D4B1B78C3F111035C4AD15CD6
:104D600001235D4AFFF7FAFC564B9868574B1B78B6
:104D7000C3F11103564AD35C013BD9B20123554A12
:104D8000FFF7ECFC4F4B9868504B1B78C3F11103B5
:104D90004F4AD35C023BD9B201234F4AFFF7DEFCF6
:104DA000CCE04A4B1B78112B29D9484B1B781A2B86
:104DB00025D8444B9868454B1B78123B444AD15C3C
:104DC0000123454AFFF7CAFC3E4B98683F4B1B78CE
:104DD000123B3F4AD35C013BD9B201233E4AFFF765
:104DE000BDFC384B9868394B1B78123B384AD35C72
:104DF000023BD9B20123374AFFF7B0FC9EE0334BA8
:104E00001B781A2B2CD9314B1B78232B28D82D4BF0
:104E100098682E4B1B78C3F123032D4AD15C0123E4
:104E20002C4AFFF79BFC274B9868284B1B78C3F153
:104E30002303274AD35C013BD9B20123264AFFF75B
:104E40008DFC204B9868214B1B78C3F12303204A2B
:104E5000D35C023BD9B201231F4AFFF77FFC6DE010
:104E60001A4B1B78232B39D9184B1B782C2B35D890
:104E7000144B9868154B1B78243B154AD15C0123D1
:104E8000154AFFF76BFC0F4B9868104B1B78243BBF
:104E90000F4AD35C013BD9B201230E4AFFF75EFCF7
:104EA000084B9868094B1B78243B094AD35C023BAA
:104EB000D9B20123084AFFF751FC3FE0BB7F002035
:104EC000F4770020A87F0020F8770020BA7F002028
:104ED000407000203D7000203C7000201F4B1B786C
:104EE0002C2B2BD91D4B1B78352B27D81C4B9868A6
:104EF0001A4B1B78C3F135031A4AD15C01231A4AB5
:104F0000FFF72CFC164B9868144B1B78C3F1350344
:104F1000144AD35C013BD9B20123134AFFF71EFCAC
:104F20000F4B98680D4B1B78C3F135030D4AD35CCA
:104F3000023BD9B201230D4AFFF710FC074B1B7847
:104F40000133DAB2054B1A70044B1B78352B02D9AA
:104F5000024B00221A7000BF80BD00BFBA7F002044
:104F6000A87F0020407000203C7000203D70002091
:104F700080B588B004AFF8607A601A460B46FB72C1
:104F800013463B81164B1B680433FA689A4221D1C1
:104F9000134B1B681B78002B0ED1FB7A9AB24FF48F
:104FA0007A7302933B8901937B6800930123B621B6
:104FB000F8680DF003F80DE0FB7A9AB24FF47A73BB
:104FC00002933B8901937B6800930123B021F86829
:104FD0000CF0F4FF002318461037BD4680BD00BF1B
:104FE000E87F002080B588B004AFF8607A601A4688
:104FF0000B46FB7213463B81164B1B680433FA6861
:105000009A4221D1134B1B681B78002B0ED1FB7ADF
:105010009AB24FF47A7302933B8901937B680093B1
:105020000123B621F8680DF0C3F80DE0FB7A9AB2BF
:105030004FF47A7302933B8901937B6800930123B9
:10504000B021F8680DF0B4F8002318461037BD46BB
:1050500080BD00BFE87F002080B586B000AFF8605B
:10506000B9607A60FB70FB78002B00F0938000231E
:10507000FB74FB68986807F1130201231221FFF704
:1050800077FFFB68986807F1130201231321FFF7EC
:105090006FFFFB78FB74FB68986807F1130201232C
:1050A0001421FFF765FFFB781B09DBB203F0030354
:1050B000DBB2FB74FB68986807F11302012304213B
:1050C000FFF756FFFB7803F00F03DBB2FB74FB68BE
:1050D000986807F1130201230521FFF749FFBB6818
:1050E000DB68DB005AB2BB685B685BB213435BB240
:1050F000DBB2FB74FB68986807F1130201231521EA
:10510000FFF736FFBB681B69DB005AB2BB689B68C0
:105110005BB213435BB2DBB2FB74FB68986807F1C8
:10512000130201231621FFF723FF00237B6124E0F4
:10513000FA787B6942FA03F303F00103002B0CD0E9
:10514000FB6898687B69DBB22033D9B27B697A68E7
:105150001A440123FFF70CFF0CE00023FB74FB68EB
:1051600098687B69DBB22033D9B207F113020123BF
:10517000FFF7FEFE7B6901337B617B69052BD7DD81
:105180008323FB74FB68986807F113020123112144
:10519000FFF7EEFE00BF1837BD4680BD80B584B076
:1051A00000AF78600023FB727B68986807F10B0200
:1051B00001231221FFF7DCFE7B68986807F10B02E0
:1051C00001231321FFF7D4FE7B68986807F10B02D7
:1051D00001231421FFF7CCFE0323FB727B68986840
:1051E00007F10B0201231121FFF7C2FE0023FB721E
:1051F0000023FB600DE07B689868FB68DBB220331E
:10520000D9B207F10B020123FFF7B2FEFB680133AD
:10521000FB60FB68052BEEDD00BF18461037BD466E
:1052200080BD80B586B000AFF860B9601346FB71F1
:105230000023FB74FB68986807F113020123122115
:10524000FFF796FEFB68986807F11302012313210C
:10525000FFF78EFEFB68986807F113020123142103
:10526000FFF786FE0323FB74FB68986807F11302BF
:1052700001231121FFF77CFE00237B6116E0FA7900
:105280007B6942FA03F303F00103002B0BD0FB68A8
:1052900098687B69DBB22033D9B27B69BA681A445B
:1052A0000123FFF765FE7B6901337B617B69052B79
:1052B000E5DD00BF18461837BD4680BD80B582B019
:1052C00000AF78607B68002B12D000224FF4805131
:1052D0000C480CF0D9F9012010F00FFF01224FF417
:1052E000805108480CF0D0F9012010F006FF03E0CF
:1052F000054906481BF03EFB002318460837BD460B
:1053000080BD00BF00040240707806086C56060895
:1053100080B584B000AF78603960184A7B6813604C
:10532000174B184A1A60164B174A5A60134B1B68E2
:105330000433134A93601248FFF7C0FF104B98687C
:1053400007F10F0201231021FFF74CFEFB7B1946EA
:105350000E481BF00FFB012010F0CFFEFB7B232B30
:1053600002D04FF0FF3305E0092209490448FFF756
:1053700058FF002318461037BD4680BDE87F002047
:10538000DC7F0020714F0408E54F040878560608BA
:105390008078002080B483B000AF00237B600A4B8C
:1053A0001B78002B02D1094B01221A70064B1B7887
:1053B0000133DAB2044B1A707B6818460C37BD46CD
:1053C0005DF8047B704700BFEC7F0020ED7F00207C
:1053D00080B483B000AF00237B600A4B1B78013B95
:1053E000DAB2084B1A70074B1B78002B02D1064B20
:1053F00000221A707B6818460C37BD465DF8047BA6
:10540000704700BFEC7F0020ED7F002080B584B0A6
:1054100000AF0346FB710023FB60FB791946094886
:105420001BF0A8FAFB79002B03D0FFF7B3FFF8605D
:1054300002E0FFF7CDFFF860FB6818461037BD4665
:1054400080BD00BF9056060880B483B000AF78607E
:10545000002318460C37BD465DF8047B70470000FA
:1054600080B584B000AF03463960FB710023FB6058
:105470003B68FB603848FFF791FEFB681B7803F040
:105480000F03FB72FB681B781B09DBB203F00F03F1
:10549000002B45D1FB7A062B3CD801A252F823F011
:1054A000BD540408C5540408D1540408DF5404084A
:1054B000ED540408F9540408075504082648FFF77A
:1054C0006DFE43E0092225492348FFF7AAFE3DE08F
:1054D0000923224A22492048FFF7BEFD36E009236E
:1054E0001E4A20491C48FFF7B7FD2FE012221B4936
:1054F0001948FFF796FE29E01223184A1849164862
:10550000FFF7AAFD22E01223144A16491248FFF7BA
:10551000A3FD1BE0092211490F48FFF782FE15E0A9
:10552000FB681B781B09DBB203F00F03022B0DD1C4
:10553000FB7A002B05D13F2208490748FFF771FE8F
:1055400004E0092205490448FFF76BFE00231846D2
:105550001037BD4680BD00BFDC7F00208078002072
:10556000587800206C78002080B483B000AF786059
:10557000002318460C37BD465DF8047B70470000D9
:10558000F0B587B002AF786039607B681B7B002B79
:1055900001D001237AE17B685B6D002B23D10023CE
:1055A000FB731BE0FB7B7A6812339B0013444FF0C4
:1055B00000021A60FB7B7A680E339B0013440433AD
:1055C0004FF000021A60FB7B7A680C339B00134497
:1055D0004FF000021A60FB7B0133FB73FA7B7B68A0
:1055E0001B699A42DEDB7B685B6D5A1C7B685A65DF
:1055F0000023FB7338E0FB7B7A6812339B00134473
:1056000093ED007AFB7B9B003A681344D3ED007A5C
:10561000FB7B77EE277A7A6812339B001344C3ED45
:10562000007AFB7B7A680E339B001344043393EDBE
:10563000007AFB7B9B003A681344D3ED006AFB7B46
:105640009B003A681344D3ED007A66EEA77AFB7BA1
:1056500077EE277A7A680E339B0013440433C3ED48
:10566000007AFB7B0133FB73FA7B7B681B699A42F0
:10567000C1DB7B685A6D7B685B699A4240F00581AB
:105680000023FB73D6E0FB7B7A6812339B00134444
:1056900093ED007AFB7B7A6812339B001344D3EDC1
:1056A000007A67EE277AC7ED027AFB7B7A680E33C1
:1056B0009B001344043393ED007A7B685B6907EE2B
:1056C000903AF8EEE76A97ED026AC6EE267A77EE30
:1056D000676A7B685B6907EE903AB8EEE77AFB7B16
:1056E000C6EE877A7A680C339B001344C3ED007AC8
:1056F000FB7B7A680C339B00134493ED007A7B6844
:10570000D3ED067AB4EEE77AF1EE10FA1FDDFE7BF8
:10571000FB7B7A680C339B0013441B681846FAF72E
:1057200013FF04460D467B689B691846FAF70CFF89
:1057300002460B46CDE9002322462B46314655480A
:105740001BF018F97B6800225A6503239EE0FB7B5F
:105750007A680C339B001344D3ED007AF5EE407A5F
:10576000F1EE10FA18D17B681B7F002B14D0FC7B64
:10577000FB7B7A680C339B0013441B681846FAF7CE
:10578000E3FE02460B46214643481BF0F3F87B68D4
:1057900000225A65042379E0FB7B7A6812339B0070
:1057A0001344D3ED006A7B685B6907EE903AB8EE6C
:1057B000E77AC6EE877AB0EEE77AFB7B7A68083341
:1057C0009B001344D3ED007AB4EEE77AF1EE10FAC1
:1057D0002DDDFE7BFB7B7A6812339B00134493ED37
:1057E000007A7B685B6907EE903AF8EEE77AC7EEDD
:1057F000276A16EE900AFAF7A7FE04460D46FB7BD1
:105800007A6808339B0013441B681846FAF79CFE1D
:1058100002460B46CDE9002322462B4631461F485F
:105820001BF0A8F87B6800225A6505232EE0FB7B5D
:105830000133FB73FA7B7B681B699A42FFF623AF47
:105840000023FB7317E0FB7B7A6812339B00134441
:10585000D3ED006A7B685B6907EE903AB8EEE77AB1
:10586000FB7BC6EE877A7A689B001344C3ED007A0F
:10587000FB7B0133FB73FA7B7B681B699A42E2DB9B
:105880007B6802221A73022300E0012318461437B2
:10589000BD46F0BDA4560608045706084C57060836
:1058A00080B584B000AF78600121786802F0BCF95F
:1058B00007F10F031946786802F0DCF9FB7B002B37
:1058C000F6D10021786802F0C3F88021786802F0F0
:1058D00094FA0421786801F09DFE0421786801F0B3
:1058E000BBFF0321786801F06FFE0421786801F0A6
:1058F0008DFF0421786802F048FA0121786802F0EF
:105900001EFA00BF1037BD4680BD000080B590B0C4
:1059100000AF78600121786802F086F907F10E0384
:105920001946786802F0A6F9BB7B002BF6D18021DE
:10593000786802F062FA0121786802F089F80321A0
:10594000786801F067FE0221786801F03DFE64206E
:1059500000F0DCFD07F10F031946786802F0AFF89C
:10596000FB7B002BF6D007F134031946786802F070
:1059700013F907F128030C22002118461AF01EFB28
:10598000002387F83E3041E007F10F03194678689D
:1059900002F095F8FB7B002BF6D007F13403194693
:1059A000786802F0F9F8002387F83D3025E097F891
:1059B0003D305B0007F14002134433F90C3C1846BC
:1059C00001F086FDB0EE407A97F83D309B0007F17C
:1059D00040021344183BD3ED007A97F83D3077EE40
:1059E000277A9B0007F140021344183BC3ED007A6D
:1059F00097F83D30013387F83D3097F83D30022B62
:105A0000D5D997F83E30013387F83E3097F83E30CD
:105A1000042BB9D9002387F83E301AE097F83E30BE
:105A20009B0007F140021344183B93ED007A97F86E
:105A30003E30F1EE046AC7EE267A9B0007F1400281
:105A40001344183BC3ED007A97F83E30013387F8D2
:105A50003E3097F83E30022BE0D90221786802F000
:105A600022F9642000F052FD07F10F03194678680F
:105A700002F025F8FB7B002BF6D007F13403194622
:105A8000786802F089F807F11C030C2200211846FF
:105A90001AF094FA002387F83E3041E007F10F0333
:105AA0001946786802F00BF8FB7B002BF6D007F163
:105AB00034031946786802F06FF8002387F83D3008
:105AC00025E097F83D305B0007F14002134433F9BD
:105AD0000C3C184601F0FCFCB0EE407A97F83D30E3
