:020000040800F2
:1000000000700020811B0008851900088B1900086A
:1000100091190008971900089D19000800000000B8
:1000200000000000000000000000000071740008E3
:10003000A319000800000000C1760008754D0008F3
:10004000D11B0008D11B0008D11B0008D11B0008E0
:10005000D11B0008D11B0008D11B0008D11B0008D0
:10006000D11B0008B1190008D11B0008D11B0008E2
:10007000D11B0008D11B0008D11B0008D11B0008B0
:10008000D11B0008D11B0008D11B0008D11B0008A0
:10009000C1190008D11B0008D11B0008D5190008A0
:1000A000D11B0008E5190008D11B0008D11B00086E
:1000B000D11B0008D11B0008D11B0008D11B000870
:1000C000D11B0008D11B0008D11B0008D11B000860
:1000D000D11B0008D11B0008D11B0008D11B000850
:1000E000D11B0008D11B0008D11B0008D11B000840
:1000F000D11B0008D11B0008D11B0008D11B000830
:10010000D11B0008D11B0008D11B0008D11B00081F
:10011000D11B0008D11B0008D11B0008D11B00080F
:10012000D11B0008D11B0008D11B0008D11B0008FF
:10013000D11B00080000000000000000D11B0008D7
:10014000F9190008D11B0008D11B0008D11B0008B9
:10015000D11B0008D11B0008D11B0008D11B0008CF
:10016000D11B0008D11B0008D11B0008D11B0008BF
:10017000D11B0008D11B0008000000000000000097
:08018000D11B0008D11B00088F
:1001900010B5054C237833B9044B13B10448AFF3C1
:1001A00000800123237010BD7800002000000000B3
:1001B000488B000808B5034B1BB103490348AFF354
:1001C000008008BD000000007C000020488B000873
:1001D00001F0FF01102A2BDB10F0070F08D010F8F8
:1001E000013B013A8B422DD010F0070F42B3F6D1FC
:1001F000F0B441EA012141EA014122F007047FF015
:1002000000070023F0E80256083C85EA010586EA6B
:10021000010685FA47F5A3FA87F586FA47F6A5FAA7
:1002200087F68EB9EED1F0BC01F0FF0102F00702B3
:1002300032B110F8013B013A83EA010313B1F8D15E
:100240000020704701387047002D06BF354603383F
:10025000073815F0010F07D1013015F4807F02BF78
:10026000013015F4C03F0130F0BC0138704700BFC9
:1002700053B94AB9002908BF00281CBF4FF0FF310D
:100280004FF0FF3000F06EB9ADF1080C6DE904CE0F
:1002900000F006F8DDF804E0DDE9022304B0704761
:1002A0002DE9F047089D04468C46002B40F08380E2
:1002B0008A42174647D9B2FA82F242B1C2F120000F
:1002C00024FA00F09140974040EA010C94404FEA34
:1002D0001748230CBCFBF8F61FFA87FE08FB16C173
:1002E00043EA014306FB0EF1994209D9FB1806F1D6
:1002F000FF3080F01981994240F21681023E3B4462
:100300005B1AA4B2B3FBF8F008FB103344EA0344D1
:1003100000FB0EFEA64509D93C1900F1FF3380F021
:100320000581A64540F2028102383C4440EA06407D
:10033000A4EB0E0400261DB1D4400023C5E9004300
:100340003146BDE8F08702B9FFDEB2FA82F2002A38
:1003500050D1CB1B4FEA174E1FFA87F80126B3FB8B
:10036000FEFC210C0EFB1C3341EA034108FB0CF39D
:100370008B4207D979180CF1FF3002D28B4200F280
:10038000E9808446C91AA3B2B1FBFEF00EFB10113E
:1003900043EA014408FB00F8A04507D93C1900F1E5
:1003A000FF3302D2A04500F2D9801846A4EB08041E
:1003B00040EA0C40BFE78B4209D9002D00F0B18024
:1003C0000026C5E9000130463146BDE8F087B3FAA2
:1003D00083F6002E4AD18B4202D3824200F2B880CB
:1003E000841A61EB030101208C46002DA8D0C5E9D9
:1003F000004CA5E7C2F1200320FA03F6974001FA6A
:1004000002F04FEA174ED9403043030CB1FBFEF621
:100410001FFA87F80EFB161143EA014306FB08F1A9
:10042000994204FA02F409D9FB1806F1FF3C80F066
:100430008D80994240F28A80023E3B445B1A81B231
:10044000B3FBFEF00EFB103341EA034100FB08F35F
:100450008B4207D9791800F1FF3C73D28B4271D9D6
:1004600002383944CB1A40EA064678E7C6F1200C38
:1004700003FA06F422FA0CF31C4320FA0CF701FAF3
:1004800006F34FEA144E21FA0CF11F433B0CB1FB6B
:10049000FEF91FFA84F80EFB191143EA014109FB2A
:1004A00008FA8A4502FA06F200FA06F308D961183A
:1004B00009F1FF3048D28A4546D9A9F10209214401
:1004C000A1EB0A01BFB2B1FBFEF00EFB101147EA2F
:1004D000014700FB08F8B84507D9E71900F1FF31DB
:1004E0002ED2B8452CD90238274440EA0940A7EB60
:1004F0000807A0FB02894F45C64649461AD317D0C4
:100500005DB1B3EB0E0267EB010707FA0CFCF2409A
:100510004CEA0202F740C5E9002700263146BDE853
:10052000F0872E4628460BE70646E9E61846FDE624
:100530004345E5D2B8EB020E69EB04010138DFE771
:100540000846D2E760468DE78146B9E7664675E71B
:1005500030464AE7ACF1020C394413E702383C4418
:1005600024E700BF704700BF80B485B000AF78605B
:100570000023FB607B68404A934206D27B68B3F15C
:10058000006F02D30023FB606FE07B683B4A93421D
:1005900006D27B68384A934202D30123FB6064E0B1
:1005A0007B68374A934206D27B68344A934202D32F
:1005B0000223FB6059E07B68324A934206D87B688D
:1005C0002F4A934202D30323FB604EE07B682E4AFE
:1005D000934206D87B682B4A934202D90423FB60DE
:1005E00043E07B68294A934206D87B68264A9342B7
:1005F00002D90523FB6038E07B68254A934206D880
:100600007B68224A934202D90623FB602DE07B6877
:10061000204A934206D87B681D4A934202D9072399
:10062000FB6022E07B681C4A934206D87B68194A2B
:10063000934202D90823FB6017E07B68174A934274
:1006400006D87B68144A934202D90923FB600CE068
:100650007B68134A934206D87B68104A934202D9BA
:100660000A23FB6001E00B23FB60FB68184614378C
:10067000BD465DF8047B704700400008008000081C
:1006800000C00008FFFF0008FFFF0108FFFF03088C
:10069000FFFF0508FFFF0708FFFF0908FFFF0B0822
:1006A000FFFF0D0880B582B000AF0023FB7102F0A0
:1006B0006BFA0346FB71FB7918460837BD4680BDCF
:1006C00080B582B000AF0023FB7102F07FFA0346D1
:1006D000FB71FB7918460837BD4680BD80B586B0F2
:1006E00000AF78600B46FB7000237B6100233B6109
:1006F0000023FB600023BB607868FFF735FF78615B
:10070000FB783B610D4B00221A600C4B02221A61F0
:100710000A4A7B699360094A3B69D36007F1080381
:100720001946064802F092FB0346002B01D000F068
:100730005BFF00BF18461837BD4680BD94000020FF
:1007400080B582B000AF786039603B681A464FF0E0
:1007500000037968022002F0C3F90346002B01D19F
:10076000002302E000F040FF012318460837BD4691
:1007700080BD000080B586B000AF786007F10C0343
:1007800000221A605A609A60154B1B68FB60144B7C
:100790005B683B61124B9B687B617B68002B04D1DB
:1007A00000233B6101237B6103E001233B610023C4
:1007B0007B6101210A48FFF791FFFB681946084851
:1007C000FFF7BEFF3B6919460648FFF7B9FF7B6993
:1007D00019460548FFF7B4FF00BF1837BD4680BD76
:1007E00000000108040001080800010880B584B079
:1007F00000AF3B1D00221A605A609A6000237B60A4
:100800000E4B5B68BB600D4B9B68FB6001210B4886
:10081000FFF764FF7B6819460848FFF791FFBB6844
:1008200019460748FFF78CFFFB6819460548FFF794
:1008300087FF00BF1037BD4680BD00BF0000010824
:10084000040001080800010880B400AFBFF34F8F17
:1008500000BF064BDB6803F4E0620449044B13431A
:10086000CB60BFF34F8F00BF00BFFDE700ED00E09E
:100870000400FA0598B500AF0121094802F0A4FD73
:1008800003465B005CB20221054802F09DFD034671
:100890005BB223435BB2DAB2024B1A7000BF98BD61
:1008A000000402400000002080B500AF374B1B68F9
:1008B00048F6AB12934204D0344B5B68184600F004
:1008C00017FB01F087F900F093F800F033FA00F01D
:1008D000F9F800F067F900F003FA00F0D3F9FFF738
:1008E000C9FF04F061FA2A4A2421102004F053FBC6
:1008F0000346284A1360284A2421102004F04BFBA9
:100900000346264A1360264A2421102004F043FBA4
:100910000346244A1360244A2421102004F03BFBA0
:100920000346224A1360224A0121082004F033FBC7
:1009300003461F4A13601F4A00211F4804F07EFA35
:1009400003461E4A13601E4A00211E4804F076FA30
:1009500003461D4A13601D4A00211D4804F06EFA2B
:1009600003461C4A13601C4A00211C4804F066FA26
:1009700003461B4A13601B4A00211B4804F05EFA21
:1009800003461A4A136004F033FAFEE70000010838
:100990000C8D0008B8460020248D0008D4450020A6
:1009A000848D0008D84500209C8D00080047002059
:1009B0008C460020C48C00085D1000082C470020E5
:1009C000E88C0008CD100008344600203C8D00085B
:1009D000CD14000888460020608D00083D150008F1
:1009E00030470020A08C0008391000083046002055
:1009F00080B594B000AF07F12003302200211846E3
:100A000007F044F907F10C0300221A605A609A605B
:100A1000DA601A610023BB60284B1B6C274A43F045
:100A200080531364254B1B6C03F08053BB60BB6881
:100A300000237B60224B1B68214A43F480431360F0
:100A40001F4B1B6803F480437B607B6801233B6280
:100A50004FF480337B620223BB634FF48003FB635C
:100A600008233B64A0237B640223BB640423FB6450
:100A700007F12003184602F041FE0346002B01D087
:100A800000F0B2FD0F23FB6002233B6100237B617A
:100A90004FF4A053BB614FF48053FB6107F10C038B
:100AA0000521184603F0A2F80346002B01D000F000
:100AB0009BFD00BF5037BD4680BD00BF00380240DF
:100AC0000070004080B500AF334B344A1A60324B9F
:100AD00004225A60304B00229A602F4B0022DA60C9
:100AE0002D4B4FF4A0221A612B4B4FF400125A6188
:100AF000294B00221A76284B00225A76264B0022D8
:100B00009A76254B0022DA76234B00221A77224B65
:100B100000225A77204801F09FF80346002B01D0AD
:100B200000F062FD1E4B00225A611D4B00229A61AB
:100B30001B4B0122DA611A4B00221A60184B00226B
:100B40005A60174B00229A60154B0022DA60144B52
:100B500000221A61124B01221A62114B0E225A62B4
:100B60000F490D4801F074F90346002B01D000F045
:100B70003BFD094801F04CFA0346002B01D000F080
:100B800033FD0221044801F074FC0346002B01D020
:100B900000F02AFD00BF80BD044700200064004033
:100BA0009046002080B500AF334B344A1A60324B78
:100BB00004225A60304B00229A602F4B0022DA60E8
:100BC0002D4B4FF4A0221A612B4B4FF400125A61A7
:100BD000294B00221A76284B00225A76264B0022F7
:100BE0009A76254B0022DA76234B00221A77224B85
:100BF00000225A77204801F02FF80346002B01D03D
:100C000000F0F2FC1E4B0E225A611D4B00229A612D
:100C10001B4B0122DA611A4B00221A60184B00228A
:100C20005A60174B00229A60154B0022DA60144B71
:100C300000221A61124B01221A62114B0E225A62D3
:100C40000F490D4801F004F90346002B01D000F0D4
:100C5000CBFC094801F0DCF90346002B01D000F081
:100C6000C3FC0221044801F004FC0346002B01D020
:100C700000F0BAFC00BF80BD604600200068004064
:100C80003846002080B500AF124B134A1A60114B52
:100C9000124A5A600F4B00229A600E4B0022DA6013
:100CA0000C4B4FF480421A610A4B00225A61094BE7
:100CB00000229A61074B0022DA61064B00221A6279
:100CC000044802F0D7FB0346002B01D000F08CFC57
:100CD00000BF80BDDC45002000580040801A06009F
:100CE00080B500AF114B124A1A60104B4FF4E1323D
:100CF0005A600E4B00229A600C4B0022DA600B4BBC
:100D000000221A61094B0C225A61084B00229A6199
:100D1000064B0022DA61054803F010FD0346002B64
:100D200001D000F061FC00BF80BD00BFBC460020C8
:100D30000044004080B58AB000AF07F114030022E0
:100D40001A605A609A60DA601A6100233B61344B82
:100D50001B6B334A43F080031363314B1B6B03F06F
:100D600080033B613B690023FB602D4B1B6B2C4ACE
:100D700043F0040313632A4B1B6B03F00403FB6073
:100D8000FB680023BB60264B1B6B254A43F0010325
:100D90001363234B1B6B03F00103BB60BB68002391
:100DA0007B601F4B1B6B1E4A43F0020313631C4BFB
:100DB0001B6B03F002037B607B68002287211948CC
:100DC00002F01AFB87237B610123BB610023FB61D7
:100DD00000233B6207F114031946124802F058F948
:100DE00048237B61104BBB610023FB6107F11403B7
:100DF00019460C4802F04CF900220521092001F0A7
:100E000045FE092001F05EFE00220521172001F0B9
:100E10003DFE172001F056FE00BF2837BD4680BDBD
:100E200000380240000802400000111080B582B076
:100E300000AF7860391D4FF6FF730122034803F0BD
:100E4000CAFC7B6818460837BD4680BDBC460020FA
:100E500080B58EB000AF78607B68214A93421BD189
:100E600007F10C031C3307F10C020021786801F034
:100E7000EEF9034687F8373097F83730002B0BD15F
:100E80007B69042B08D1174B186807F10C0100236C
:100E9000002204F0F3F838637B68134A93421BD1B5
:100EA00007F10C031C3307F10C020021786801F0F4
:100EB000CEF9034687F8373097F83730002B0BD13F
:100EC0007B69042B08D1094B186807F10C0100233A
:100ED000002204F0D3F8386300BF3837BD4680BD28
:100EE00004470020D4450020604600200047002031
:100EF00080B584B000AF78607B68012B16D1214BA0
:100F00001A68214B1340B3F1005F26D11F4B1B68B9
:100F10001F4A13601E4B1B681A461E4B1A60194B62
:100F20001B68FB60FB6883F3088816E01A4B1A689D
:100F3000154B1340B3F1005F0FD1184B1B68144AD7
:100F40001360134B1B681A46124B1A60124B1B6836
:100F5000BB60BB6883F3088800BF114B1B6A104A53
:100F600043F0805313620E4B1B6A0D4A23F08053EB
:100F7000136203F067F8074B1B68984700BF1037F0
:100F8000BD4680BD00000A080000FD2F04000A08CD
:100F9000CC450020D04500200000040804000408CF
:100FA0000038024080B582B000AF03463A60FB7162
:100FB0000B46BB710B4B1B781B0143F48062FB7922
:100FC00013431A463B685A603B68BA791A77064B56
:100FD000186800230022396804F050F800BF083771
:100FE000BD4680BD00000020B846002080B58AB014
:100FF00000AF094B1B781B0143F4806343F00403EB
:10100000BB60064B1868391D0023002204F036F837
:1010100000BF2837BD4680BD00000020D445002019
:1010200080B400AF034B9B681846BD465DF8047B57
:10103000704700BF0000010880B584B000AF786041
:10104000054B186807F10B014FF0FF33002204F045
:1010500075F8F860FFF7F8FB8C46002080B58EB07D
:1010600000AF7860164B186807F10C014FF0FF33A2
:10107000002204F063F878633B691946114806F0D2
:101080000DFE0023BB6104237B610823FB61002369
:1010900087F8203007F1300007F10C0303F11C0240
:1010A00007F10C010346084800F0F6FF0346002B49
:1010B00001D000F099FA012003F052FFD2E700BFFF
:1010C000B8460020EC8B00080447002080B5A2B091
:1010D00000AF786000233B610023FB600023FB67C7
:1010E0000023C7F884300023BB600023BB670023C4
:1010F0007B670023C7F88030BF4B186807F14401B5
:101100004FF0FF33002204F019F83867BB6C194622
:10111000BA4806F0C3FDBB6C1B0ADBB203F00F0339
:1011200087F86F30BB6C1B09DBB203F00F0387F845
:101130006E30BB6CDBB203F00F0387F86D30BB6C15
:101140001B0B9BB2FB67AE4B1B7897F86E209A4245
:1011500009D0AC4B186807F144010023002203F0CA
:101160008DFF3867A9E197F86D30062B00F2A48156
:1011700001A252F823F000BFB51300089511000832
:10118000E71100081313000829140008611400086F
:10119000E91300083B6E3B617B6EFB609A4B0022BB
:1011A0001A60FFF73DFF0346002B06D1974BC7F8A7
:1011B00084300023C7F8803005E0954BC7F88430B1
:1011C0000123C7F88030934BF222DA600321D7F86D
:1011D0008400FFF783FA07F120031A460121082053
:1011E000FFF7E0FE69E1884B1B68FA6F9A4240F016
:1011F0008180854B1B6844F6DA7293420AD1824B98
:101200001B68DB00D7F884201344BB66B96E8248A4
:1012100006F044FD07F1140307F1600292E80300B1
:1012200083E803007B4BDB6803F0F203002B10D054
:10123000784BF222DA604FF0FF33BB60BB68C7F82F
:101240003D3007F120031A4600210920FFF7AAFECE
:1012500033E16D4B1B68DA00D7F8843013447A69A8
:1012600011461846FFF76CFAB867BB6F002B11D018
:10127000654B1B68DA00D7F884301344BB60BB6849
:10128000C7F83D3007F120031A4600210920FFF777
:1012900089FE12E15C4B1B68DA00D7F884301344F6
:1012A0000433BA6911461846FFF74AFAB867BB6FAC
:1012B000002B12D0544B1B68DA00D7F8843013444B
:1012C0000433BB60BB68C7F83D3007F120031A4602
:1012D00000210920FFF766FEEFE007F120031A4620
:1012E00001210920FFF75EFE474B1B680133464A88
:1012F0001360E2E0444AFB6F1360434B1B68C7F87E
:101300003D3007F120031A4600210920FFF74AFE6D
:10131000D3E03B6EFB603C4B1A68FB689A422AD1D3
:10132000FB68002B27D007F120031A4601210A2071
:10133000FFF738FED7F88000FFF71CFAFFF756FAE0
:10134000FFF7BEF9B867BB6F002B07D107F1200389
:101350001A4601210A20FFF725FE06E007F12003C7
:101360001A4600210A20FFF71DFE012003F0F8FDB8
:10137000FFF73CFEA1E0244B1B88A7F8603007F183
:1013800020031A4600210A20FFF70CFE012003F07B
:10139000E7FDFFF72BFAFFF793F9B8671F4B5B6880
:1013A000FB611F4B186807F11C010023002203F0AA
:1013B00065FE82E0FFF776F9B867BB6F002B0BD1B3
:1013C000184B1B68C7F83D3007F120031A4601216E
:1013D0000720FFF7E7FD70E007F120031A46002120
:1013E0000720FFF7DFFD68E007F120031A4601211F
:1013F0000C20FFF7D7FD60E0D4450020048C0008E6
:1014000000000020D8450020A800002000000408AB
:1014100000000A08003C0240208C0008000001087F
:101420008C46002008000108264B5B68FB61FFF733
:1014300039F9FFF7DBF9FFF743F907F120031A4603
:1014400001210D20FFF7AEFD0A2003F089FD1E4BA0
:10145000186807F11C010023002203F00FFE2CE0A6
:1014600097F860307B67FFF71DF9B867BB6F002BFB
:1014700006D007F120031A4600210B20FFF792FD4A
:10148000012003F06DFD786FFFF774F9FFF718F98D
:10149000B867BB6F002B07D107F120031A46012163
:1014A0000B20FFF77FFD08E007F120031A4600211B
:1014B0000B20FFF777FD00E000BF012003F050FD97
:1014C0001AE600BF000001088C46002080B58EB0EF
:1014D00000AF7860164B186807F10C014FF0FF332E
:1014E000002203F02BFE78633B697A6B19461148A2
:1014F00006F0D4FB0023BB6104237B610823FB615E
:10150000002387F8203007F1300007F10C0303F1C6
:101510001C0207F10C010346074800F0BDFD03461D
:10152000002B01D000F060F8012003F019FDD1E795
:10153000D8450020408C00086046002080B58EB061
:1015400000AF78601B4B186807F10C014FF0FF33B8
:10155000002203F0F3FD7863FB683A6919461648E8
:1015600006F09CFB3B691B0ADBB203F00F0387F814
:1015700033303B691B09DBB203F00F0387F83230CD
:101580003B69DBB203F00F0387F831300B4B1B785C
:1015900097F832209A4208D0094B186807F10C01DD
:1015A0000023002203F06AFD7863012003F0D8FCD9
:1015B000C8E700BF00470020608C00080000002042
:1015C000B846002080B582B000AF78607B681B68A9
:1015D000044A934201D100F01FFB00BF0837BD460B
:1015E00080BD00BF0000014080B400AF00BFBD4619
:1015F0005DF8047B7047000080B582B000AF002327
:101600007B60124B5B6C114A43F4804353640F4B75
:101610005B6C03F480437B607B6800233B600B4B77
:101620001B6C0A4A43F080531364084B1B6C03F095
:1016300080533B603B6800220F216FF0010001F0F6
:1016400025FA00BF0837BD4680BD00BF0038024004
:1016500080B58CB000AF786007F11C0300221A60DF
:101660005A609A60DA601A617B681B684A4A934242
:101670003ED14A4B1B680133484A1360474B1B68F5
:10168000012B0DD10023BB61454B1B6C444A43F039
:1016900000731364424B1B6C03F00073BB61BB69A6
:1016A00000237B613E4B1B6B3D4A43F001031363F8
:1016B0003B4B1B6B03F001037B617B694FF4C05311
:1016C000FB6102233B6200237B620323BB6209238D
:1016D000FB6207F11C031946324801F0D9FC0022D5
:1016E0000521142001F0D2F9142001F0EBF94FE0AC
:1016F0007B681B682C4A93424AD100233B61284BEC
:101700001B6C274A43F080631364254B1B6C03F06A
:1017100080633B613B69214B1B6801331F4A1360A7
:101720001E4B1B68012B0DD10023FB601C4B1B6C57
:101730001B4A43F000731364194B1B6C03F00073D6
:10174000FB60FB680023BB60154B1B6B144A43F026
:1017500002031363124B1B6B03F00203BB60BB68F5
:101760006023FB6102233B6200237B620323BB6295
:101770000923FB6207F11C0319460C4801F088FCA1
:1017800000220521402001F081F9402001F09AF962
:1017900000BF3037BD4680BD00640040AC00002073
:1017A000003802400000024000680040000402408F
:1017B00080B58AB000AF786007F1140300221A6088
:1017C0005A609A60DA601A617B681B68194A934212
:1017D0002CD100233B61184B1B6B174A43F00203CB
:1017E0001363154B1B6B03F002033B613B694FF422
:1017F00040637B611223BB610123FB6103233B62D6
:1018000004237B6207F1140319460C4801F040FCE5
:101810000023FB60084B1B6C074A43F480031364EE
:10182000054B1B6C03F48003FB60FB6800BF28378B
:10183000BD4680BD00580040003802400004024010
:1018400080B58AB000AF786007F1140300221A60F7
:101850005A609A60DA601A617B681B68194A934281
:101860002BD100233B61184B1B6C174A43F4003308
:101870001364154B1B6C03F400333B613B6900237D
:10188000FB60114B1B6B104A43F0010313630E4BBB
:101890001B6B03F00103FB60FB680C237B610223DD
:1018A000BB610023FB6103233B6207237B6207F1DB
:1018B00014031946054801F0EBFB00BF2837BD466D
:1018C00080BD00BF004400400038024000000240DC
:1018D00080B58CB000AF78600023FB620023BB6250
:1018E00000227968192001F0D1F8192001F0EAF8F6
:1018F0000023FB601F4B5B6C1E4A43F001035364E3
:101900001C4B5B6C03F00103FB60FB6807F11002EA
:1019100007F114031146184602F062FB02F04CFB7B
:1019200003465B00FB62FB6A134AA2FB03239B0C8A
:10193000013BBB62114B124A1A60104B40F2E73276
:10194000DA600E4ABB6A53600C4B00221A610B4BE3
:1019500000229A60094802F043FC0346002B04D1A0
:10196000064802F097FC034600E001231846303792
:10197000BD4680BD0038024083DE1B433447002053
:101980000000014080B400AFFEE780B400AFFEE786
:1019900080B400AFFEE780B400AFFEE780B400AFD4
:1019A000FEE780B400AF00BFBD465DF8047B704722
:1019B00080B500AF082001F039FD00BF80BD0000F8
:1019C00080B500AF024800F07AFD00BF80BD00BFC7
:1019D0000447002080B500AF402001F027FD00BF84
:1019E00080BD000080B500AF024802F0C3FC00BF1C
:1019F00080BD00BF3447002080B500AF024800F032
:101A00005EFD00BF80BD00BF6046002080B586B08F
:101A100000AFF860B9607A6000237B610AE0AFF341
:101A200000800146BB685A1CBA60CAB21A707B6952
:101A300001337B617A697B689A42F0DB7B681846E8
:101A40001837BD4680BD80B586B000AFF860B9607C
:101A50007A6000237B6109E0BB685A1CBA601B787E
:101A60001846FFF7E3F97B6901337B617A697B688C
:101A70009A42F1DB7B6818461837BD4680BD80B4BA
:101A800083B000AF78604FF0FF3318460C37BD4687
:101A90005DF8047B704780B483B000AF7860396034
:101AA0003B684FF400525A60002318460C37BD467D
:101AB0005DF8047B704780B483B000AF7860012389
:101AC00018460C37BD465DF8047B704780B485B07E
:101AD00000AFF860B9607A60002318461437BD463D
:101AE0005DF8047B7047000080B586B000AF786079
:101AF000144A154BD31A7B617B693B61134B1B68FE
:101B0000002B02D1114B124A1A60104B1A687B68E5
:101B100013443A699A4207D206F080F803460C2231
:101B20001A604FF0FF3309E0084B1B68FB60074B5E
:101B30001A687B681344054A1360FB681846183717
:101B4000BD4680BD0070002000040000B0000020F1
:101B5000F047002080B400AF084BD3F88830074A24
:101B600043F47003C2F88830044B4FF000629A606F
:101B700000BFBD465DF8047B704700BF00ED00E08C
:101B8000DFF834D0002103E00C4B5B5843500431A4
:101B90000B480C4B42189A42F6D30B4A02E0002342
:101BA00042F8043B094B9A42F9D3FFF7D3FF06F002
:101BB0003BF8FEF779FE704700700020748E000835
:101BC000000000207800002078000020F04700206E
:101BD000FEE7000080B500AF0E4B1B680D4A43F4D2
:101BE000007313600B4B1B680A4A43F48063136055
:101BF000084B1B68074A43F480731360032000F00E
:101C00003AFF0020FFF764FEFFF7F6FC00231846BA
:101C100080BD00BF003C024080B400AF064B1B7883
:101C20001A46064B1B681344044A136000BFBD46A6
:101C30005DF8047B704700BF0C0000207C4700204B
:101C400080B400AF034B1B681846BD465DF8047BAB
:101C5000704700BF7C47002080B584B000AF78603B
:101C60007B68002B01D10123EDE07B6893F82030E5
:101C7000DBB2002B02D17868FFF7EAFC7B681B68B7
:101C80001A687B681B6822F002021A60FFF7D8FF0F
:101C9000F86012E0FFF7D4FF0246FB68D31A0A2B64
:101CA0000BD97B685B6A43F400327B685A627B68BD
:101CB000052283F820200123C5E07B681B685B6850
:101CC00003F00203002BE5D17B681B681A687B6870
:101CD0001B6842F001021A60FFF7B2FFF86012E0E1
:101CE000FFF7AEFF0246FB68D31A0A2B0BD97B68BD
:101CF0005B6A43F400327B685A627B68052283F892
:101D0000202001239FE07B681B685B6803F00103D0
:101D1000002BE5D07B681B7E012B08D17B681B68FC
:101D20001A687B681B6842F080021A6007E07B68D3
:101D30001B681A687B681B6822F080021A607B6847
:101D40005B7E012B08D17B681B681A687B681B6867
:101D500042F040021A6007E07B681B681A687B68E3
:101D60001B6822F040021A607B689B7E012B08D121
:101D70007B681B681A687B681B6842F020021A6047
:101D800007E07B681B681A687B681B6822F02002EA
:101D90001A607B68DB7E012B08D17B681B681A68A0
:101DA0007B681B6822F010021A6007E07B681B68E2
:101DB0001A687B681B6842F010021A607B681B7F00
:101DC000012B08D17B681B681A687B681B6842F08E
:101DD00008021A6007E07B681B681A687B681B684A
:101DE00022F008021A607B685B7F012B08D17B68B8
:101DF0001B681A687B681B6842F004021A6007E0DF
:101E00007B681B681A687B681B6822F004021A60F2
:101E10007B689A687B68DB681A437B681B691A4396
:101E20007B685B6942EA03017B685B685A1E7B68DA
:101E30001B680A43DA617B6800225A627B680122D0
:101E400083F82020002318461037BD4680BD0000CF
:101E500080B487B000AF786039607B681B687B61B5
:101E60007B6893F82030FB74FB7C012B03D0FB7C58
:101E7000022B40F0BE80654B7B617B69D3F800325A
:101E800043F001027B69C3F800227B69D3F800327A
:101E900023F47C527B69C3F800227B69D3F80022CB
:101EA0003B685B6A1B021A437B69C3F800223B68EC
:101EB0005B6903F01F03012202FA03F3FB607B69F5
:101EC000D3F81C22FB68DB431A407B69C3F81C2251
:101ED0003B68DB69002B23D17B69D3F80C22FB68BC
:101EE000DB431A407B69C3F80C223B68DB681904AA
:101EF0003B685B689BB23A68526919437B69483218
:101F000043F832103B689B6819043B681B689AB21F
:101F10003B685B690A4379694833DB000B445A60CC
:101F20003B68DB69012B22D17B69D3F80C22FB686B
:101F30001A437B69C3F80C223B681B6819043B6891
:101F40005B689BB23A68526919437B69483243F82F
:101F500032103B689B6819043B68DB689AB23B68A7
:101F60005B690A4379694833DB000B445A603B687C
:101F70009B69002B09D17B69D3F80422FB68DB4302
:101F80001A407B69C3F8042207E07B69D3F8042276
:101F9000FB681A437B69C3F804223B681B69002B6A
:101FA00009D17B69D3F81422FB68DB431A407B69B3
:101FB000C3F8142207E07B69D3F81422FB681A43A4
:101FC0007B69C3F814223B681B6A012B07D17B692C
:101FD000D3F81C22FB681A437B69C3F81C227B6977
:101FE000D3F8003223F001027B69C3F800220023FA
:101FF00006E07B685B6A43F480227B685A620123B7
:1020000018461C37BD465DF8047B704700640040ED
:1020100080B584B000AF78607B6893F82030DBB285
:10202000012B2ED17B68022283F820207B681B685D
:102030001A687B681B6822F001021A60FFF700FE35
:10204000F86012E0FFF7FCFD0246FB68D31A0A2B8A
:102050000BD97B685B6A43F400327B685A627B6809
:10206000052283F82020012312E07B681B685B684F
:1020700003F00103002BE5D17B6800225A620023A4
:1020800006E07B685B6A43F400227B685A620123A6
:1020900018461037BD4680BD80B489B000AFF860E7
:1020A000B9607A603B60FB6893F82030FB77FB688F
:1020B0001B689B68BB61FB7F012B03D0FB7F022B5E
:1020C00040F0B880BB6903F08063002B0AD1BB6984
:1020D00003F00063002B05D1BB6903F08053002B94
:1020E00000F0A080BB691B0E03F003037B617B69DA
:1020F000022B07D9FB685B6A43F40002FB685A6253
:1021000001239EE001227B699A403B681A60BB680C
:102110009B68002B0DD1BB681B685A05BB68DB6848
:10212000F96809681A437B6918331B010B441A606C
:102130000FE0BB685B68DA00BB689B681A43BB684A
:10214000DB68F96809681A437B6918331B010B4483
:102150001A60FB681968BB681A697B6918331B0130
:102160000B4404331A60BB681B7D012B11D1FB6843
:102170001A687B6918331B01134404331B68FA681F
:10218000116843F480727B6918331B010B440433DC
:102190001A607B6807331B781A067B6806331B7846
:1021A0001B041A437B6805331B781B0213437A68B0
:1021B000043212781046FA68116843EA00027B691B
:1021C0001B010B4403F5C6731A607B6803331B784D
:1021D0001A067B6802331B781B041A437B680133A1
:1021E0001B781B0213437A6812781046FA6811684C
:1021F00043EA00027B691B010B4403F5C4731A60B8
:10220000FB681A687B6918331B0113441B68FA6862
:10221000116843F001027B6918331B010B441A60FB
:1022200000230EE0FB685B6A43F40012FB685A620D
:10223000012306E0FB685B6A43F48022FB685A6274
:10224000012318462437BD465DF8047B704780B4EF
:1022500087B000AFF860B9607A603B60FB6893F8C4
:102260002030FB75FB7D012B03D0FB7D022B40F062
:10227000F380BB68002B0ED1FB681B68DB6803F0A2
:102280000303002B16D1FB685B6A43F40012FB6862
:102290005A620123E7E0FB681B681B6903F0030334
:1022A000002B07D1FB685B6A43F40012FB685A629B
:1022B0000123D8E0FB681A68BB681B331B01134479
:1022C0001B6803F004027B689A607B689B68002BA4
:1022D0000CD1FB681A68BB681B331B0113441B68D5
:1022E0005B0DC3F30A027B681A600BE0FB681A6897
:1022F000BB681B331B0113441B68DB0823F06042DF
:102300007B685A60FB681A68BB681B331B01134467
:102310001B6803F002027B68DA60FB681A68BB681E
:102320001B331B01134404331B6803F00F027B684B
:102330001A61FB681A68BB681B331B011344043322
:102340001B681B0ADAB27B689A61FB681A68BB6873
:102350001B331B01134404331B681B0C9AB27B68AC
:102360005A61FB681A68BB681B01134403F5DC73F0
:102370001B68DAB23B681A70FB681A68BB681B01FD
:10238000134403F5DC731B681A0A3B680133D2B2AD
:102390001A70FB681A68BB681B01134403F5DC73F1
:1023A0001B681A0C3B680233D2B21A70FB681A68B9
:1023B000BB681B01134403F5DC731B681A0E3B68F2
:1023C0000333D2B21A70FB681A68BB681B0113444E
:1023D00003F5DE731A683B680433D2B21A70FB68E7
:1023E0001A68BB681B01134403F5DE731B681A0AE5
:1023F0003B680533D2B21A70FB681A68BB681B01D0
:10240000134403F5DE731B681A0C3B680633D2B223
:102410001A70FB681A68BB681B01134403F5DE736E
:102420001B681A0E3B680733D2B21A70BB68002BC8
:1024300008D1FB681B68DA68FB681B6842F0200261
:10244000DA6007E0FB681B681A69FB681B6842F0EA
:1024500020021A61002306E0FB685B6A43F48022D5
:10246000FB685A62012318461C37BD465DF8047BA1
:10247000704780B485B000AF786039607B6893F8AE
:102480002030FB73FB7B012B02D0FB7B022B09D19D
:102490007B681B6859697B681B683A680A435A6104
:1024A000002306E07B685B6A43F480227B685A6203
:1024B000012318461437BD465DF8047B704780B58C
:1024C0008AB000AF786000237B627B681B685B6921
:1024D0003B627B681B685B68FB617B681B689B6871
:1024E000BB617B681B68DB687B617B681B681B6961
:1024F0003B617B681B689B69FB603B6A03F00103DF
:10250000002B7CD0BB6903F00103002B23D07B6838
:102510001B6801229A60BB6903F00203002B03D001
:10252000786800F083F916E0BB6903F00403002B20
:1025300004D07B6A43F400637B620CE0BB6903F068
:102540000803002B04D07B6A43F480537B6202E0D3
:10255000786800F089F9BB6903F48073002B24D0FC
:102560007B681B684FF480729A60BB6903F4007348
:10257000002B03D0786800F063F916E0BB6903F420
:102580008063002B04D07B6A43F400537B620CE031
:10259000BB6903F40063002B04D07B6A43F48043DF
:1025A0007B6202E0786800F069F9BB6903F480336C
:1025B000002B24D07B681B684FF480329A60BB6983
:1025C00003F40033002B03D0786800F043F916E0E1
:1025D000BB6903F48023002B04D07B6A43F40043DF
:1025E0007B620CE0BB6903F40023002B04D07B6A00
:1025F00043F480337B6202E0786800F049F93B6A7B
:1026000003F00803002B0CD07B6903F01003002BB0
:1026100007D07B6A43F400737B627B681B681022DF
:10262000DA603B6A03F00403002B0BD07B6903F0F4
:102630000803002B06D07B681B680822DA607868E4
:1026400000F030F93B6A03F00203002B09D07B68ED
:102650001B68DB6803F00303002B02D07868FEF7E9
:10266000F7FB3B6A03F04003002B0CD03B6903F0FF
:102670001003002B07D07B6A43F480637B627B6886
:102680001B6810221A613B6A03F02003002B0BD059
:102690003B6903F00803002B06D07B681B68082207
:1026A0001A61786800F012F93B6A03F01003002BFE
:1026B00009D07B681B681B6903F00303002B02D061
:1026C000786800F0F9F83B6A03F40033002B0BD074
:1026D000FB6903F01003002B06D07B681B681022F7
:1026E0005A60786800F0FCF83B6A03F48033002BF2
:1026F0000BD0FB6903F00803002B06D07B681B6836
:1027000008225A60786800F0F5F83B6A03F4004349
:10271000002B7BD0FB6903F00403002B72D03B6AD3
:1027200003F48073002B08D0FB6803F00103002B37
:1027300003D07B6A43F001037B623B6A03F40073BE
:10274000002B08D0FB6803F00203002B03D07B6A48
:1027500043F002037B623B6A03F48063002B08D0E2
:10276000FB6803F00403002B03D07B6A43F00403EF
:102770007B623B6A03F40063002B43D0FB6803F0E9
:102780007003002B3ED0FB6803F07003602B2BD04E
:10279000602B2ED8502B22D0502B2AD8402B19D06A
:1027A000402B26D8302B10D0302B22D8102B02D023
:1027B000202B05D01DE07B6A43F008037B6219E003
:1027C0007B6A43F010037B6214E07B6A43F02003D2
:1027D0007B620FE07B6A43F040037B620AE07B6A26
:1027E00043F080037B6205E07B6A43F480737B6285
:1027F00000E000BF7B681B689A697B681B6822F059
:1028000070029A617B681B6804225A607B6A002B05
:1028100008D07B685A6A7B6A1A437B685A62786878
:1028200000F072F800BF2837BD4680BD80B483B089
:1028300000AF786000BF0C37BD465DF8047B704781
:1028400080B483B000AF786000BF0C37BD465DF840
:10285000047B704780B483B000AF786000BF0C3752
:10286000BD465DF8047B704780B483B000AF7860EC
:1028700000BF0C37BD465DF8047B704780B483B061
:1028800000AF786000BF0C37BD465DF8047B704731
:1028900080B483B000AF786000BF0C37BD465DF8F0
:1028A000047B704780B483B000AF786000BF0C3702
:1028B000BD465DF8047B704780B483B000AF78609C
:1028C00000BF0C37BD465DF8047B704780B483B011
:1028D00000AF786000BF0C37BD465DF8047B7047E1
:1028E00080B483B000AF786000BF0C37BD465DF8A0
:1028F000047B704780B483B000AF786000BF0C37B2
:10290000BD465DF8047B704780B483B000AF78604B
:1029100000BF0C37BD465DF8047B704780B485B0BE
:1029200000AF78607B6803F00703FB600C4BDB684B
:10293000BB60BA684FF6FF031340BB60FB681A0226
:10294000BB68134343F0BF6343F40033BB60044AE6
:10295000BB68D36000BF1437BD465DF8047B704789
:1029600000ED00E080B400AF044BDB681B0A03F00D
:1029700007031846BD465DF8047B704700ED00E094
:1029800080B483B000AF0346FB7197F90730002B8A
:102990000BDBFB7903F01F02074997F907305B094E
:1029A000012000FA02F241F8232000BF0C37BD4697
:1029B0005DF8047B704700BF00E100E080B483B0A5
:1029C00000AF03463960FB7197F90730002B0ADB33
:1029D0003B68DAB20C4997F907301201D2B20B44C6
:1029E00083F800230AE03B68DAB20849FB7903F078
:1029F0000F03043B1201D2B20B441A7600BF0C370E
:102A0000BD465DF8047B704700E100E000ED00E0AA
:102A100080B489B000AFF860B9607A60FB6803F0F9
:102A20000703FB61FB69C3F10703042B28BF0423E1
:102A3000BB61FB690433062B02D9FB69033B00E051
:102A400000237B614FF0FF32BB6902FA03F3DA43E4
:102A5000BB681A407B699A404FF0FF317B6901FAED
:102A600003F3D9437B680B40134318462437BD4614
:102A70005DF8047B704780B582B000AF78607868FD
:102A8000FFF74CFF00BF0837BD4680BD80B586B05C
:102A900000AF0346B9607A60FB7300237B61FFF7E8
:102AA00061FF78617A68B9687869FFF7B1FF02461B
:102AB00097F90F3011461846FFF780FF00BF18370F
:102AC000BD4680BD80B582B000AF0346FB7197F96B
:102AD00007301846FFF754FF00BF0837BD4680BDDA
:102AE00080B586B000AFF860B960C7E90023012364
:102AF000FB75234B1B7E012B01D102233BE0204BB6
:102B000001221A764CF2503000F070F80346FB7543
:102B1000FB7D002B2BD1FB68002B05D13B781946A0
:102B2000B86800F01BF916E0FB68012B05D13B8863
:102B30001946B86800F0EEF80DE0FB68022B05D1ED
:102B40003B681946B86800F0C3F804E0D7E90023F1
:102B5000B86800F08BF84CF2503000F047F80346AC
:102B6000FB75084B1B69074A23F001031361044BF3
:102B700000221A76FB7D18461837BD4680BD00BF7F
:102B800080470020003C024080B483B000AF0023A7
:102B9000FB710B4B1B69002B0BDA094B094A5A607E
:102BA000074B094A5A60064B1B69002B01DA0123C7
:102BB000FB71FB7918460C37BD465DF8047B704706
:102BC000003C024023016745AB89EFCD80B400AFE4
:102BD000054B1B69044A43F0004313610023184668
:102BE000BD465DF8047B7047003C024080B584B070
:102BF00000AF78600023FB601A4B0022DA61FFF718
:102C00001FF8F86010E07B68B3F1FF3F0CD07B68E1
:102C1000002B07D0FFF714F80246FB68D31A7A6836
:102C20009A4201D2032319E00F4BDB6803F480338F
:102C3000002BE8D10C4BDB6803F00103002B02D022
:102C4000094B0122DA60084BDB6803F0F203002B2A
:102C500003D000F0A5F8012300E000231846103748
:102C6000BD4680BD80470020003C024080B485B056
:102C700000AFF860C7E90023144B1B69134A23F423
:102C800040731361114B1B69104A43F44073136185
:102C90000E4B1B690D4A43F001031361FB683A6850
:102CA0001A60BFF36F8F00BFD7E900014FF0000239
:102CB0004FF000030A000023F968043113460B604B
:102CC00000BF1437BD465DF8047B7047003C0240EE
:102CD00080B483B000AF786039600D4B1B690C4A3B
:102CE00023F4407313610A4B1B69094A43F40073D0
:102CF0001361074B1B69064A43F0010313617B68AC
:102D00003A681A6000BF0C37BD465DF8047B704717
:102D1000003C024080B483B000AF78600B467B80FB
:102D20000D4B1B690C4A23F4407313610A4B1B695A
:102D3000094A43F480731361074B1B69064A43F049
:102D4000010313617B687A881A8000BF0C37BD4687
:102D50005DF8047B704700BF003C024080B483B044
:102D600000AF78600B46FB700C4B1B690B4A23F4D9
:102D700040731361094B094A1B691361074B1B69B7
:102D8000064A43F0010313617B68FA781A7000BFAA
:102D90000C37BD465DF8047B704700BF003C024025
:102DA00080B400AF274BDB6803F01003002B08D082
:102DB000254BDB6943F01003234AD361214B1022DA
:102DC000DA60204BDB6803F02003002B08D01E4B99
:102DD000DB6943F008031C4AD3611A4B2022DA60F6
:102DE000184BDB6803F04003002B08D0164BDB695F
:102DF00043F00403144AD361124B4022DA60114BB2
:102E0000DB6803F08003002B08D00F4BDB6943F035
:102E100002030D4AD3610B4B8022DA60094BDB6859
:102E200003F00203002B08D0074BDB6943F02003BB
:102E3000054AD361034B0222DA6000BFBD465DF84C
:102E4000047B7047003C02408047002080B584B07E
:102E500000AF786039600123FB730023BB60314B06
:102E60001B7E012B01D1022358E02E4B01221A7642
:102E70004CF25030FFF7BAFE0346FB73FB7B002B8E
:102E800048D13B684FF0FF321A607B681B68012B0A
:102E900015D17B681B69DAB27B685B6819461046FE
:102EA00000F044F84CF25030FFF7A0FE0346FB73ED
:102EB0001D4B1B691C4A23F00403136128E07B6847
:102EC0009B68BB601CE07B681B69DBB21946B86875
:102ED00000F050F84CF25030FFF788FE0346FB73C9
:102EE000114B1B69104A23F0FA031361FB7B002B83
:102EF00003D03B68BA681A600AE0BB680133BB6064
:102F00007B68DA687B689B681344BA689A42DAD3B4
:102F100000F078F8034B00221A76FB7B1846103736
:102F2000BD4680BD80470020003C024080B483B095
:102F300000AF03463960FB710D4B1B690C4A23F44B
:102F4000407313610A4B1B69094A43F00403136180
:102F5000074B1A69FB791B021343054A43F480337C
:102F6000136100BF0C37BD465DF8047B704700BF9E
:102F7000003C024080B485B000AF78600B46FB7027
:102F80000023FB60FB78002B02D10023FB6010E0E4
:102F9000FB78012B03D14FF48073FB6009E0FB78D1
:102FA000022B03D14FF40073FB6002E04FF4407337
:102FB000FB60134B1B69124A23F440731361104BDF
:102FC0001A690F49FB6813430B610D4B1B690C4ACF
:102FD00023F0F80313610A4B1A697B68DB00134383
:102FE000074A43F002031361054B1B69044A43F48B
:102FF0008033136100BF1437BD465DF8047B704712
:10300000003C024080B400AF204B1B6803F4007307
:10301000002B17D01D4B1B681C4A23F40073136050
:103020001A4B1B68194A43F400631360174B1B6863
:10303000164A23F400631360144B1B68134A43F4CD
:1030400000731360114B1B6803F48063002B17D0CF
:103050000E4B1B680D4A23F4806313600B4B1B68F7
:103060000A4A43F480531360084B1B68074A23F451
:1030700080531360054B1B68044A43F4806313605C
:1030800000BFBD465DF8047B704700BF003C0240B6
:1030900080B489B000AF7860396000237B61002381
:1030A0003B610023BB610023FB616BE10122FB69F3
:1030B00002FA03F37B613B681B687A6913403B614A
:1030C0003A697B699A4240F05A813B685B6803F039
:1030D0000303012B05D03B685B6803F00303022B5D
:1030E00030D17B689B68BB61FB695B00032202FAFD
:1030F00003F3DB43BA691340BB613B68DA68FB69E1
:103100005B0002FA03F3BA691343BB617B68BA69D7
:103110009A607B685B68BB610122FB6902FA03F37A
:10312000DB43BA691340BB613B685B681B0903F072
:103130000102FB6902FA03F3BA691343BB617B68BE
:10314000BA695A603B685B6803F00303032B17D02E
:103150007B68DB68BB61FB695B00032202FA03F357
:10316000DB43BA691340BB613B689A68FB695B004B
:1031700002FA03F3BA691343BB617B68BA69DA6088
:103180003B685B6803F00303022B23D1FB69DA0879
:103190007B68083253F82230BB61FB6903F00703F8
:1031A0009B000F2202FA03F3DB43BA691340BB61B1
:1031B0003B681A69FB6903F007039B0002FA03F3FB
:1031C000BA691343BB61FB69DA087B680832B969E5
:1031D00043F822107B681B68BB61FB695B0003221C
:1031E00002FA03F3DB43BA691340BB613B685B68D7
:1031F00003F00302FB695B0002FA03F3BA691343AD
:10320000BB617B68BA691A603B685B6803F08053F6
:10321000002B00F0B4800023FB60604B5B6C5F4AC6
:1032200043F4804353645D4B5B6C03F48043FB6069
:10323000FB685B4AFB699B08023352F82330BB6191
:10324000FB6903F003039B000F2202FA03F3DB4345
:10325000BA691340BB617B68524A93422BD07B68AA
:10326000514A934225D07B68504A93421FD07B68D5
:103270004F4A934219D07B684E4A934213D07B68E1
:103280004D4A93420DD07B684C4A934207D07B68ED
:103290004B4A934201D107230EE008230CE006239A
:1032A0000AE0052308E0042306E0032304E00223E8
:1032B00002E0012300E00023FA6902F00302920019
:1032C0009340BA691343BB613549FB699B080233DC
:1032D000BA6941F823203B4B1B68BB613B69DB4368
:1032E000BA691340BB613B685B6803F48033002B11
:1032F00003D0BA693B691343BB61324ABB691360AF
:10330000304B5B68BB613B69DB43BA691340BB610F
:103310003B685B6803F40033002B03D0BA693B6958
:103320001343BB61274ABB695360264B9B68BB6153
:103330003B69DB43BA691340BB613B685B6803F4DC
:103340008013002B03D0BA693B691343BB611D4A4C
:10335000BB6993601B4BDB68BB613B69DB43BA69AC
:103360001340BB613B685B6803F40013002B03D080
:10337000BA693B691343BB61124ABB69D360FB69FD
:103380000133FB61FB690F2B7FF690AE00BF00BFDE
:103390002437BD465DF8047B704700BF003802400B
:1033A00000380140000002400004024000080240D2
:1033B000000C0240001002400014024000180240BD
:1033C000001C0240003C014080B485B000AF786032
:1033D0000B467B807B681A697B881340002B02D0E8
:1033E0000123FB7301E00023FB73FB7B18461437BA
:1033F000BD465DF8047B704780B483B000AF786051
:103400000B467B8013467B707B78002B03D07A8839
:103410007B689A6103E07B881A047B689A6100BF2D
:103420000C37BD465DF8047B7047000080B582B064
:1034300000AF0346FB80084B5A69FB881340002B02
:1034400006D0054AFB885361FB88184600F006F851
:1034500000BF0837BD4680BD003C014080B483B04A
:1034600000AF0346FB8000BF0C37BD465DF8047B10
:103470007047000080B584B000AF78607B68002B97
:1034800001D101232BE17B6893F83D30DBB2002BA7
:1034900006D17B68002283F83C207868FEF788F923
:1034A0007B68242283F83D207B681B681A687B6850
:1034B0001B6822F001021A607B681B681A687B682F
:1034C0001B6842F400421A607B681B681A687B68BC
:1034D0001B6822F400421A6000F05AFDF8607B6815
:1034E0005B68814A934207D8FB68804A934294BF45
:1034F00001230023DBB206E0FB687D4A934294BFC0
:1035000001230023DBB2002B01D00123E7E0FB689D
:10351000784AA2FB03239B0CBB607B681B685B683B
:1035200023F03F017B681B68BA680A435A607B68D6
:103530001B681B6A23F03F017B685B686A4A934201
:1035400002D8BB68013309E0BB684FF4967202FBF6
:1035500003F3694AA2FB03239B0901337A681268CB
:103560000B4313627B681B68DB6923F44F4222F034
:10357000FF027B685B685C498B4219D8FB68591E67
:103580007B685B685B00B1FBF3F3591C40F6FC738E
:103590000B40002B0AD0FB68591E7B685B685B0000
:1035A000B1FBF3F30133C3F30B0351E004234FE00A
:1035B0007B689B68002B11D1FB68581E7B6859689B
:1035C0000B465B000B44B0FBF3F30133C3F30B0377
:1035D000002B0CBF01230023DBB212E0FB68581E56
:1035E0007B6859680B469B000B4499000B44B0FB69
:1035F000F3F30133C3F30B03002B0CBF01230023B0
:10360000DBB2002B01D0012322E07B689B68002BFA
:103610000ED1FB68581E7B6859680B465B000B4453
:10362000B0FBF3F30133C3F30B0343F400430FE0A8
:10363000FB68581E7B6859680B469B000B44990039
:103640000B44B0FBF3F30133C3F30B0343F44043E8
:10365000796809681343CB617B681B681B6823F09A
:10366000C0017B68DA697B681B6A1A437B681B6848
:103670000A431A607B681B689B6823F4034323F0AA
:10368000FF037A6811697A68D26811437A68126810
:103690000B4393607B681B68DB6823F0FF017B684A
:1036A0005A697B689B691A437B681B680A43DA6026
:1036B0007B681B681A687B681B6842F001021A600D
:1036C0007B6800221A647B68202283F83D207B6897
:1036D00000221A637B68002283F83E2000231846EC
:1036E0001037BD4680BD00BFA08601007F841E004C
:1036F000FF083D0083DE1B43D34D621080B586B0CA
:1037000000AF78607B68002B01D1012364E27B6805
:103710001B6803F00103002B75D0A34B9B6803F0DB
:103720000C03042B0CD0A04B9B6803F00C03082B5C
:1037300012D19D4B5B6803F48003B3F5800F0BD16E
:10374000994B1B6803F40033002B5BD07B685B68EC
:10375000002B57D101233FE27B685B68B3F5803FC4
:1037600006D1914B1B68904A43F4803313601DE0EF
:103770007B685B68B3F5A02F0CD18B4B1B688A4A22
:1037800043F480231360884B1B68874A43F48033DB
:1037900013600BE0844B1B68834A23F4803313606F
:1037A000814B1B68804A23F4802313607B685B682D
:1037B000002B13D0FEF744FA386108E0FEF740FA18
:1037C00002463B69D31A642B01D9032304E2764BEA
:1037D0001B6803F40033002BF0D014E0FEF730FA3E
:1037E000386108E0FEF72CFA02463B69D31A642BD5
:1037F00001D90323F0E16C4B1B6803F40033002B69
:10380000F0D100E000BF7B681B6803F00203002BCF
:1038100063D0654B9B6803F00C03002B0BD0624B0D
:103820009B6803F00C03082B1CD15F4B5B6803F40F
:103830008003002B16D15C4B1B6803F00203002BA6
:1038400005D07B68DB68012B01D00123C4E1564B16
:103850001B6823F0F8027B681B69DB0052491343A5
:103860000B603AE07B68DB68002B20D04F4B0122D5
:103870001A60FEF7E5F9386108E0FEF7E1F9024663
:103880003B69D31A022B01D90323A5E1464B1B68E0
:1038900003F00203002BF0D0434B1B6823F0F80227
:1038A0007B681B69DB00404913430B6015E03F4B0D
:1038B00000221A60FEF7C4F9386108E0FEF7C0F98B
:1038C00002463B69D31A022B01D9032384E1364B0C
:1038D0001B6803F00203002BF0D17B681B6803F028
:1038E0000803002B30D07B685B69002B16D0304B6F
:1038F00001221A60FEF7A4F9386108E0FEF7A0F98A
:1039000002463B69D31A022B01D9032364E1264BFB
:103910005B6F03F00203002BF0D015E0244B002274
:103920001A60FEF78DF9386108E0FEF789F9024662
:103930003B69D31A022B01D903234DE11A4B5B6F6C
:1039400003F00203002BF0D17B681B6803F0040333
:10395000002B00F0A0800023FB75134B1B6C03F0C1
:103960008053002B0FD10023BB600F4B1B6C0E4A02
:1039700043F0805313640C4B1B6C03F08053BB600B
:10398000BB680123FB750B4B1B6803F48073002B92
:1039900021D1084B1B68074A43F480731360FEF77C
:1039A0004FF9386111E000BF003802400000474283
:1039B000800E474200700040FEF742F902463B6924
:1039C000D31A022B01D9032306E1854B1B6803F4AC
:1039D0008073002BF0D07B689B68012B06D1814B54
:1039E0001B6F804A43F0010313671CE07B689B68F0
:1039F000052B0CD17B4B1B6F7A4A43F004031367F2
:103A0000784B1B6F774A43F0010313670BE0754B4C
:103A10001B6F744A23F001031367724B1B6F714ACB
:103A200023F0040313677B689B68002B15D0FEF717
:103A300007F938610AE0FEF703F902463B69D31A39
:103A400041F28832934201D90323C5E0654B1B6FD5
:103A500003F00203002BEED014E0FEF7F1F838611A
:103A60000AE0FEF7EDF802463B69D31A41F28832CC
:103A7000934201D90323AFE05A4B1B6F03F00203BB
:103A8000002BEED1FB7D012B05D1564B1B6C554A0B
:103A900023F0805313647B689B69002B00F09B80AC
:103AA000504B9B6803F00C03082B5CD07B689B6930
:103AB000022B41D14C4B00221A60FEF7C1F838614D
:103AC00008E0FEF7BDF802463B69D31A022B01D984
:103AD000032381E0434B1B6803F00073002BF0D1FC
:103AE0007B68DA697B681B6A1A437B685B6A9B01A7
:103AF0001A437B689B6A5B08013B1B041A437B6883
:103B0000DB6A1B06374913434B60374B01221A60AF
:103B1000FEF796F8386108E0FEF792F802463B6936
:103B2000D31A022B01D9032356E02E4B1B6803F056
:103B30000073002BF0D04EE02B4B00221A60FEF7F2
:103B40007FF8386108E0FEF77BF802463B69D31A3C
:103B5000022B01D903233FE0224B1B6803F00073C3
:103B6000002BF0D137E07B689B69012B01D1012349
:103B700032E01C4B5B68FB607B689B69012B28D0A3
:103B8000FB6803F480027B68DB699A4221D1FB6801
:103B900003F03F027B681B6A9A421AD1FA6847F623
:103BA000C07313407A68526A9201934211D1FB6844
:103BB00003F440327B689B6A5B08013B1B049A421A
:103BC00007D1FB6803F070627B68DB6A1B069A42D0
:103BD00001D0012300E0002318461837BD4680BD00
:103BE00000700040003802406000474280B584B059
:103BF00000AF786039607B68002B01D10123CCE0F5
:103C0000684B1B6803F007033A689A420CD9654B6E
:103C10003A68D2B21A70634B1B6803F007033A6824
:103C20009A4201D00123B8E07B681B6803F00203CD
:103C3000002B20D07B681B6803F00403002B05D009
:103C4000594B9B68584A43F4E05393607B681B6868
:103C500003F00803002B05D0534B9B68524A43F4F2
:103C600060439360504B9B6823F0F0027B689B6835
:103C70004D4913438B607B681B6803F00103002BE5
:103C800044D07B685B68012B07D1474B1B6803F46A
:103C90000033002B19D101237FE07B685B68022B86
:103CA00003D07B685B68032B07D13F4B1B6803F095
:103CB0000073002B09D101236FE03B4B1B6803F01D
:103CC0000203002B01D1012367E0374B9B6823F0EF
:103CD00003027B685B68344913438B60FDF7B0FFD8
:103CE000F8600AE0FDF7ACFF0246FB68D31A41F228
:103CF0008832934201D903234FE02B4B9B6803F09A
:103D00000C027B685B689B009A42EBD1254B1B68D9
:103D100003F007033A689A420CD2224B3A68D2B2B7
:103D20001A70204B1B6803F007033A689A4201D0CF
:103D3000012332E07B681B6803F00403002B08D0EA
:103D4000194B9B6823F4E0527B68DB6816491343E8
:103D50008B607B681B6803F00803002B09D0124BB3
:103D60009B6823F460427B681B69DB000E491343A8
:103D70008B6000F021F802460B4B9B681B0903F097
:103D80000F030A49CB5C22FA03F3094A1360094B7B
:103D90001B681846FDF79CFD002318461037BD46EA
:103DA00080BD00BF003C024000380240B48D0008D6
:103DB00004000020080000202DE9B04384B000AFCB
:103DC00000237B600023FB6000233B600023BB607B
:103DD000674B9B6803F00C03082B0DD0082B00F2F7
:103DE000BD80002B02D0042B03D0B7E0614BBB6039
:103DF000B7E0604BBB60B4E05D4B5B6803F03F0332
:103E00007B605B4B5B6803F48003002B4DD0584B09
:103E10005B689B091A464FF0000340F2FF104FF019
:103E2000000102EA000803EA0109404649464FF052
:103E300000024FF000034B0143EAD06342011046F9
:103E40001946B0EB080061EB09014FF000024FF09A
:103E500000038B0143EA90638201121A63EB0103B2
:103E60004FF000004FF00001D90041EA5271D0003C
:103E700002460B4612EB080243EB09034FF0000029
:103E80004FF00001990241EA9251900202460B461E
:103E9000104619467B681A464FF00003FCF7E8F914
:103EA00002460B461346FB604AE0314B5B689B09B8
:103EB0001A464FF0000340F2FF104FF0000102EAF3
:103EC000000403EA0105204629464FF000024FF0A6
:103ED00000034B0143EAD063420110461946001B20
:103EE00061EB05014FF000024FF000038B0143EA44
:103EF00090638201121A63EB01034FF000004FF050
:103F00000001D90041EA5271D00002460B46121955
:103F100045EB03034FF000004FF00001990241EA26
:103F20009251900202460B46104619467B681A468B
:103F30004FF00003FCF79CF902460B461346FB606A
:103F40000B4B5B681B0C03F0030301335B003B600E
:103F5000FA683B68B2FBF3F3BB6002E0054BBB6061
:103F600000BFBB6818461037BD46BDE8B08300BF30
:103F7000003802400024F40080B400AF034B1B68FB
:103F80001846BD465DF8047B704700BF0400002062
:103F900080B500AFFFF7F0FF0246054B9B689B0A18
:103FA00003F007030349CB5C22FA03F3184680BDF4
:103FB00000380240C48D000880B500AFFFF7DCFF79
:103FC0000246054B9B685B0B03F007030349CB5C80
:103FD00022FA03F3184680BD00380240C48D000861
:103FE00080B483B000AF786039607B680F221A60BC
:103FF000124B9B6803F003027B685A600F4B9B686F
:1040000003F0F0027B689A600C4B9B6803F4E0526B
:104010007B68DA60094B9B68DB0803F4E0527B683D
:104020001A61074B1B6803F007023B681A6000BF68
:104030000C37BD465DF8047B704700BF0038024076
:10404000003C024080B582B000AFFDF7F9FD78601A
:104050005D4B1B685C4A43F00103136008E0FDF709
:10406000EFFD02467B68D31A022B01D90323A7E098
:10407000554B1B6803F00203002BF0D0524B1B681A
:10408000514A43F080031360FDF7DAFD78604E4B30
:1040900000229A600AE0FDF7D3FD02467B68D31A3E
:1040A00041F28832934201D9032389E0464B9B6851
:1040B00003F00C03002BEED1FDF7C2FD7860424BFC
:1040C0001B68414A23F45023136008E0FDF7B8FD54
:1040D00002467B68D31A642B01D9032370E03A4B64
:1040E0001B6803F40033002BF0D1FDF7A9FD7860C5
:1040F000354B1B68344A23F08073136008E0FDF7EA
:104100009FFD02467B68D31A022B01D9032357E097
:104110002D4B1B6803F00073002BF0D1FDF790FDD1
:104120007860294B1B68284A23F08063136008E0FD
:10413000FDF786FD02467B68D31A022B01D90323C3
:104140003EE0214B1B6803F00063002BF0D11E4BB7
:104150001E4A5A601C4B1E4AC3F884201A4BDB6867
:10416000194A23F4F853D360174BDB68164A23F43B
:104170000053D360144BDB68134A43F41F03D3602E
:10418000114BDB68104A43F40013D3600E4B5B6F96
:104190000D4A23F0010353670B4B5B6F0A4A43F050
:1041A000807353670B4B0C4A1A600C4B1B68184604
:1041B000FDF78EFB0346002B01D0012300E0002316
:1041C00018460837BD4680BD003802401030000454
:1041D00000300020040000200024F400080000202B
:1041E00080B582B000AF78607B68002B01D10123DD
:1041F00041E07B6893F83D30DBB2002B06D17B6851
:10420000002283F83C20786800F039F87B680222AD
:1042100083F83D207B681A687B6804331946104692
:1042200000F0D8F97B68012283F846207B680122E0
:1042300083F83E207B68012283F83F207B680122BF
:1042400083F840207B68012283F841207B680122AB
:1042500083F842207B68012283F843207B68012297
:1042600083F844207B68012283F845207B68012283
:1042700083F83D20002318460837BD4680BD80B432
:1042800083B000AF786000BF0C37BD465DF8047B9B
:104290007047000080B485B000AF78607B6893F809
:1042A0003D30DBB2012B01D001234EE07B680222BE
:1042B00083F83D207B681B68DA687B681B6842F0E6
:1042C0000102DA607B681B68234A934222D07B6834
:1042D0001B68B3F1804F1DD07B681B681F4A934257
:1042E00018D07B681B681E4A934213D07B681B68FA
:1042F0001C4A93420ED07B681B681B4A934209D02C
:104300007B681B68194A934204D07B681B68184A73
:10431000934211D17B681B689B6803F00703FB6025
:10432000FB68062B10D07B681B681A687B681B68CB
:1043300042F001021A6007E07B681B681A687B681C
:104340001B6842F001021A60002318461437BD466C
:104350005DF8047B704700BF00000140000400408E
:1043600000080040000C00400004014000400140F3
:104370000018004080B582B000AF78607B681B6891
:104380001B6903F00203022B22D17B681B68DB68E8
:1043900003F00203022B1BD17B681B686FF0020243
:1043A0001A617B6801221A777B681B689B6903F09E
:1043B0000303002B03D0786800F0EEF805E078687E
:1043C00000F0E0F8786800F0F1F87B6800221A77D6
:1043D0007B681B681B6903F00403042B22D17B68F4
:1043E0001B68DB6803F00403042B1BD17B681B688C
:1043F0006FF004021A617B6802221A777B681B68DF
:104400009B6903F44073002B03D0786800F0C4F874
:1044100005E0786800F0B6F8786800F0C7F87B68C7
:1044200000221A777B681B681B6903F00803082BBE
:1044300022D17B681B68DB6803F00803082B1BD1C3
:104440007B681B686FF008021A617B6804221A7788
:104450007B681B68DB6903F00303002B03D07868DB
:1044600000F09AF805E0786800F08CF8786800F0C1
:104470009DF87B6800221A777B681B681B6903F034
:104480001003102B22D17B681B68DB6803F010033C
:10449000102B1BD17B681B686FF010021A617B68C0
:1044A00008221A777B681B68DB6903F44073002BD2
:1044B00003D0786800F070F805E0786800F062F8E2
:1044C000786800F073F87B6800221A777B681B68B5
:1044D0001B6903F00103012B0ED17B681B68DB68AD
:1044E00003F00103012B07D17B681B686FF0010209
:1044F0001A617868FDF766F87B681B681B6903F032
:104500008003802B0ED17B681B68DB6803F080037F
:10451000802B07D17B681B686FF080021A61786876
:1045200000F002F97B681B681B6903F04003402B15
:104530000ED17B681B68DB6803F04003402B07D17A
:104540007B681B686FF040021A61786800F038F8E9
:104550007B681B681B6903F02003202B0ED17B684E
:104560001B68DB6803F02003202B07D17B681B68E6
:104570006FF020021A61786800F0CCF800BF0837AD
:10458000BD4680BD80B483B000AF786000BF0C37FB
:10459000BD465DF8047B704780B483B000AF78609F
:1045A00000BF0C37BD465DF8047B704780B483B014
:1045B00000AF786000BF0C37BD465DF8047B7047E4
:1045C00080B483B000AF786000BF0C37BD465DF8A3
:1045D000047B704780B485B000AF786039607B6839
:1045E0001B68FB607B68404A934213D07B68B3F141
:1045F000804F0FD07B683D4A93420BD07B683C4A8A
:10460000934207D07B683B4A934203D07B683A4A87
:10461000934208D1FB6823F07003FB603B685B6842
:10462000FA681343FB607B682F4A93422BD07B6868
:10463000B3F1804F27D07B682C4A934223D07B680C
:104640002B4A93421FD07B682A4A93421BD07B6837
:10465000294A934217D07B68284A934213D07B683B
:10466000274A93420FD07B68264A93420BD07B683F
:10467000254A934207D07B68244A934203D07B6843
:10468000234A934208D1FB6823F44073FB603B68E4
:10469000DB68FA681343FB60FB6823F080023B6829
:1046A0005B691343FB607B68FA681A603B689A6831
:1046B0007B68DA623B681A687B689A627B680A4AA0
:1046C000934203D07B680C4A934203D13B681A693A
:1046D0007B681A637B6801225A6100BF1437BD46AC
:1046E0005DF8047B704700BF0000014000040040FB
:1046F00000080040000C0040000401400040014060
:10470000004401400048014000180040001C0040E7
:104710000020004080B483B000AF786000BF0C3749
:10472000BD465DF8047B704780B483B000AF78600D
:1047300000BF0C37BD465DF8047B704780B582B082
:1047400000AF78607B68002B01D101233FE07B68DC
:1047500093F83D30DBB2002B06D17B68002283F852
:104760003C207868FDF76CF87B68242283F83D20B4
:104770007B681B68DA687B681B6822F40052DA6089
:10478000786800F005F97B681B681A697B681B680C
:1047900022F490421A617B681B685A697B681B6827
:1047A00022F02A025A617B681B68DA687B681B6802
:1047B00042F40052DA607B6800221A647B6820228F
:1047C00083F83D207B68202283F83E200023184692
:1047D0000837BD4680BD80B58AB002AFF860B960C9
:1047E0003B601346FB8000237B61FB6893F83D3000
:1047F000DBB2202B7CD1BB68002B02D0FB88002BC6
:1048000001D1012375E0FB6893F83C30012B01D105
:1048100002236EE0FB68012283F83C20FB68002243
:104820001A64FB68212283F83D20FDF709FA7861BC
:10483000FB68FA889A84FB68FA88DA84FB689B68CC
:10484000B3F5805F08D1FB681B69002B04D10023FE
:10485000FB61BB68BB6103E0BB68FB610023BB611C
:10486000FB68002283F83C202AE03B6800937B69C8
:1048700000228021F86800F040F80346002B01D0A8
:10488000032336E0FB69002B0BD1BB691B881A465A
:10489000FB681B68C2F308025A60BB690233BB6144
:1048A00007E0FB691A78FB681B685A60FB690133F3
:1048B000FB61FB68DB8C9BB2013B9AB2FB68DA843C
:1048C000FB68DB8C9BB2002BCFD13B6800937B69EC
:1048D00000224021F86800F010F80346002B01D0B8
:1048E000032306E0FB68202283F83D20002300E03C
:1048F000022318462037BD4680BD80B584B000AF86
:10490000F860B9603B601346FB712CE0BB69B3F102
:10491000FF3F28D0BB69002B07D0FDF791F9024675
:104920003B68D31ABA699A421DD2FB681B68DA68E1
:10493000FB681B6822F4D072DA60FB681B685A6956
:10494000FB681B6822F001025A61FB68202283F891
:104950003D20FB68202283F83E20FB68002283F87C
:104960003C2003230FE0FB681B681A68BB681340F8
:10497000BA689A420CBF01230023DBB21A46FB79C6
:104980009A42C3D0002318461037BD4680BD0000B0
:104990002DE9F04F9FB000AFF866FB6E1B681B69F6
:1049A00023F44050FB6ED968FB6E1A6840EA01039D
:1049B0001361FB6E9A68FB6E1B691A43FB6E5B69A1
:1049C0001A43FB6EDB6913433B67FB6E1B68DB68B6
:1049D00023F4164121F00C01FB6E1A683B6F0B4368
:1049E000D360FB6E1B685B6923F44070FB6E9969B2
:1049F000FB6E1A6840EA01035361FB6E1A68C54BEF
:104A00009A4204D0FB6E1A68C34B9A4203D1FFF757
:104A1000D3FA786702E0FFF7BBFA7867FB6EDB69D1
:104A2000B3F5004F40F0B6807B6F1C464FF0000599
:104A300022462B46911839645B417B64D7E91023E9
:104A4000121945EB03034FF000004FF00001D900AD
:104A500041EA5271D00002460B46111939666B418A
:104A60007B66FB6E5B681A464FF000039118B963D2
:104A70005B41FB63D7E90E23D7E91801FBF7F8FB8D
:104A800002460B46A54BA3FB02235B091E017B6F6D
:104A90001C464FF0000522462B46911839635B41B6
:104AA0007B63D7E90C23121945EB03034FF0000099
:104AB0004FF00001D90041EA5271D00002460B4686
:104AC0001119B9656B41FB65FB6E5B681A464FF0C7
:104AD00000039118B9625B41FB62D7E90A23D7E969
:104AE0001601FBF7C5FB02460B468C4BA3FB0213DA
:104AF0005B09642101FB03F3D31ADB003233874ADD
:104B0000A2FB03235B095B0003F4F8731E447B6F75
:104B100018464FF0000102460B4694183C625B4178
:104B20007B62D7E90823121841EB03034FF000041E
:104B30004FF00005DD0045EA5275D40022462B46B1
:104B400014183C654B417B65FB6E5B681A464FF061
:104B500000039118B9615B41FB61D7E90623D7E9EE
:104B60001401FBF785FB02460B466C4BA3FB0213BB
:104B70005B09642101FB03F3D31ADB003233674A7C
:104B8000A2FB03235B0903F00702FB6E1B683244A0
:104B90009A60B9E07B6F1C464FF0000522462B4619
:104BA000911839615B417B61D7E90423121945EB08
:104BB00003034FF000004FF00001D90041EA5271A9
:104BC000D00002460B4612EB040843EB0509FB6ECE
:104BD0005B6818464FF000014FF000024FF00003F1
:104BE0008B0043EA9073820040464946FBF740FB46
:104BF00002460B46494BA3FB02235B091E017B6F58
:104C000018464FF0000102460B469418BC605B4109
:104C1000FB60D7E90223121841EB03034FF00004B5
:104C20004FF00005DD0045EA5275D40022462B46C0
:104C30001418BC644B41FB64FB6E5B6818464FF074
:104C400000014FF000024FF000038B0043EA907325
:104C50008200D7E91201FBF70BFB02460B462F4BF4
:104C6000A3FB02135B09642101FB03F3D31A1B01AD
:104C700032332A4AA2FB03235B0903F0F0031E44EC
:104C80007B6F18464FF0000102460B4694183C60BB
:104C90005B417B60D7E90023121841EB03034FF01F
:104CA00000044FF00005DD0045EA5275D4002246AD
:104CB0002B4612EB000A43EB010BFB6E5B681846B8
:104CC0004FF000014FF000024FF000038B0043EA69
:104CD0009073820050465946FBF7CAFA02460B46CB
:104CE0000E4BA3FB02135B09642101FB03F3D31AF0
:104CF0001B013233094AA2FB03235B0903F00F02B5
:104D0000FB6E1B6832449A6000BF7C37BD46BDE82D
:104D1000F08F00BF00100140001401401F85EB51CF
:104D200080B483B000AF03463960FB7197F9073058
:104D3000002B0ADB3B68DAB20C4997F90730120105
:104D4000D2B20B4483F800230AE03B68DAB2084988
:104D5000FB7903F00F03043B1201D2B20B441A7625
:104D600000BF0C37BD465DF8047B704700E100E0F2
:104D700000ED00E080B500AF054B1B6801F0E8FED8
:104D80000346012B01D002F0CFFC00BF80BD00BF65
:104D900010E000E080B500AF00216FF00400FFF7E5
:104DA000BFFF00BF80BD000080B483B000AFEFF351
:104DB00005833B603B68002B03D06FF005037B60ED
:104DC0000CE00A4B1B68002B05D1084B01221A602E
:104DD00000237B6002E04FF0FF337B607B68184666
:104DE0000C37BD465DF8047B704700BFB40000205F
:104DF00080B582B000AFEFF305833B603B68002BCA
:104E000003D06FF005037B6010E00B4B1B68012B98
:104E100009D1FFF7BFFF084B02221A6001F050FAD8
:104E200000237B6002E04FF0FF337B607B68184615
:104E30000837BD4680BD00BFB400002080B58EB0ED
:104E400004AFF860B9607A6000233B61EFF305833B
:104E50007B617B69002B7ED1FB68002B7BD080239C
:104E60003B621823FB6100237B624FF0FF33BB6181
:104E70007B68002B45D07B681B68002B02D07B68C9
:104E80001B687B627B689B69002B02D07B689B69F7
:104E9000FB61FB69002B08D0FB69382B05D87B68C8
:104EA0005B6803F00103002B01D0002354E07B6812
:104EB0005B69002B03D07B685B699B083B627B6866
:104EC0009B68002B0ED07B68DB685B2B0AD97B6864
:104ED0001B69002B06D07B685B69002B02D0012385
:104EE000BB6110E07B689B68002B0CD17B68DB68A2
:104EF000002B08D17B681B69002B04D10023BB6108
:104F000001E00023BB61BB69012B10D17B681B69E9
:104F10007A68926802920193FB690093BB683A6ACF
:104F2000796AF86800F0F6FF03463B6113E0BB695D
:104F3000002B10D13B6A9AB207F110030193FB6971
:104F40000093BB68796AF86801F041F80346012BC9
:104F500001D000233B613B6918462837BD4680BD20
:104F600080B584B000AF7860EFF30583BB60BB68A9
:104F7000002B03D06FF00503FB6007E00023FB600C
:104F80007B68002B02D0786801F066F9FB68184650
:104F90001037BD4680BD80B58AB002AFF860B960F9
:104FA0007A600023FB61EFF305833B613B69002BD3
:104FB0005FD1FB68002B5CD0BB68002B59D04FF051
:104FC000FF33BB617B68002B29D07B689B68002B7B
:104FD00012D07B68DB684F2B0ED97B681B69002BD6
:104FE0000AD07B685A69FB68B96801FB03F39A42EF
:104FF00002D30123BB6114E07B689B68002B10D1B6
:105000007B68DB68002B0CD17B681B69002B08D107
:105010007B685B69002B04D10023BB6101E00023A6
:10502000BB61BB69012B0BD17B681A697B689B68EC
:1050300000210091B968F86800F02EFAF86108E0E4
:10504000BB69002B05D10022B968F86800F09CFA12
:10505000F861FB69002B0CD07B68002B03D07B68C8
:105060001B687B6101E000237B617969F86900F0CE
:10507000F3FEFB6918462037BD4680BD80B588B079
:1050800000AFF860B9603B601346FB71FB68BB6121
:105090000023FB61EFF305837B617B69002B28D044
:1050A000BB69002B05D0BB68002B02D03B68002BEE
:1050B00003D06FF00303FB6138E000233B6107F18D
:1050C00010020023B968B86900F0BAFB0346012B4F
:1050D00003D06FF00203FB6128E03B69002B25D071
:1050E000154B4FF080521A60BFF34F8FBFF36F8F95
:1050F0001CE0BB69002B02D0BB68002B03D16FF012
:105100000303FB6112E000233A68B968B86900F054
:1051100099FA0346012B09D03B68002B03D06FF0AE
:105120000103FB6102E06FF00203FB61FB691846BB
:105130002037BD4680BD00BF04ED00E080B588B0DB
:1051400000AFF860B9607A603B60FB68BB61002328
:10515000FB61EFF305837B617B69002B28D0BB6982
:10516000002B05D0BB68002B02D03B68002B03D07E
:105170006FF00303FB6137E000233B6107F110038D
:105180001A46B968B86900F0D7FC0346012B03D072
:105190006FF00203FB6127E03B69002B24D0154B25
:1051A0004FF080521A60BFF34F8FBFF36F8F1BE039
:1051B000BB69002B02D0BB68002B03D16FF0030347
:1051C000FB6111E03A68B968B86900F0D5FB0346A5
:1051D000012B09D03B68002B03D06FF00103FB616A
:1051E00002E06FF00203FB61FB6918462037BD4601
:1051F00080BD00BF04ED00E080B485B000AFF86072
:10520000B9607A60FB68074A1A60BB68064A1A6090
:105210007B6880221A6000BF1437BD465DF8047BAE
:10522000704700BFB80000201401002080B485B092
:1052300000AFF860B9607A60FB68074A1A60BB6823
:10524000064A1A607B684FF480721A6000BF1437F8
:10525000BD465DF8047B70471403002070030020F6
:1052600080B483B000AF78607B6803F108027B688C
:105270005A607B684FF0FF329A607B6803F1080246
:105280007B68DA607B6803F108027B681A617B68DF
:1052900000221A6000BF0C37BD465DF8047B7047E2
:1052A00080B483B000AF78607B6800221A6100BFD1
:1052B0000C37BD465DF8047B704780B485B000AF05
:1052C000786039607B685B68FB603B68FA685A60AD
:1052D000FB689A683B689A60FB689B683A685A600A
:1052E000FB683A689A603B687A681A617B681B6859
:1052F0005A1C7B681A6000BF1437BD465DF8047BFA
:10530000704780B485B000AF786039603B681B6837
:10531000BB60BB68B3F1FF3F03D17B681B69FB60D7
:105320000CE07B680833FB6002E0FB685B68FB60B5
:10533000FB685B681B68BA689A42F6D2FB685A68D9
:105340003B685A603B685B683A689A603B68FA68F9
:105350009A60FB683A685A603B687A681A617B68B1
:105360001B685A1C7B681A6000BF1437BD465DF885
:10537000047B704780B485B000AF78607B681B69A0
:10538000FB607B685B687A6892689A607B689B6860
:105390007A6852685A60FB685B687A689A4203D1FF
:1053A0007B689A68FB685A607B6800221A61FB6818
:1053B0001B685A1EFB681A60FB681B681846143786
:1053C000BD465DF8047B704780B584B000AF78605F
:1053D00039607B68FB60FB68002B0AD14FF05003FB
:1053E00083F31188BFF36F8FBFF34F8FBB6000BF94
:1053F000FEE702F007F9FB681A68FB68DB6BF968E7
:10540000096C01FB03F31A44FB689A60FB680022F5
:105410009A63FB681A68FB685A60FB681A68FB6845
:10542000DB6B013BF968096C01FB03F31A44FB6871
:10543000DA60FB68FF2283F84420FB68FF2283F8D0
:1054400045203B68002B14D1FB681B69002B1AD048
:10545000FB681033184601F0BDF90346002B12D04B
:105460000C4B4FF080521A60BFF34F8FBFF36F8F1A
:1054700009E0FB6810331846FFF7F2FEFB6824339F
:105480001846FFF7EDFE02F0EDF80123184610373D
:10549000BD4680BD04ED00E080B58EB002AFF8607F
:1054A000B9607A603B60FB68002B0AD14FF0500373
:1054B00083F31188BFF36F8FBFF34F8FBB6200BFC1
:1054C000FEE73B68002B0AD14FF0500383F31188AD
:1054D000BFF36F8FBFF34F8F7B6200BFFEE77B6828
:1054E000002B02D0BB68002B01D0012300E0002379
:1054F000002B0AD14FF0500383F31188BFF36F8F55
:10550000BFF34F8F3B6200BFFEE77B68002B02D1E9
:10551000BB68002B01D1012300E00023002B0AD13E
:105520004FF0500383F31188BFF36F8FBFF34F8F9A
:10553000FB6100BFFEE750237B617B69502B0AD0E3
:105540004FF0500383F31188BFF36F8FBFF34F8F7A
:10555000BB6100BFFEE77B693B68FB62FB6A002B17
:105560000DD0FB6A012283F8462097F83820FB6AA9
:10557000009313467A68B968F86800F03FF8FB6A50
:1055800018463037BD4680BD80B58AB002AFF8609E
:10559000B9601346FB71FB68002B0AD14FF0500332
:1055A00083F31188BFF36F8FBFF34F8F3B6100BF51
:1055B000FEE7FB68BA6802FB03F3FB61FB6950334B
:1055C000184602F041F9B861BB69002B11D0BB69E4
:1055D0007B617B6950337B61BB69002283F8462085
:1055E000FA79BB69009313467A69B968F86800F0E4
:1055F00005F8BB6918462037BD4680BD80B584B02C
:1056000000AFF860B9607A60FB70BB68002B03D113
:10561000BB69BA691A6002E0BB697A681A60BB6943
:10562000FA68DA63BB69BA681A640121B869FFF7DE
:10563000CBFEBB69FA7883F84C2000BF1037BD461B
:1056400080BD000080B58EB000AFF860B9607A60B0
:105650003B6000237B63FB683B633B6B002B0AD101
:105660004FF0500383F31188BFF36F8FBFF34F8F59
:10567000BB6200BFFEE7BB68002B03D13B6B1B6C1A
:10568000002B01D1012300E00023002B0AD14FF0B1
:10569000500383F31188BFF36F8FBFF34F8F7B628B
:1056A00000BFFEE73B68022B03D13B6BDB6B012B9A
:1056B00001D1012300E00023002B0AD14FF0500359
:1056C00083F31188BFF36F8FBFF34F8F3B6200BF2F
:1056D000FEE701F03DFA0346002B02D17B68002B68
:1056E00001D1012300E00023002B0AD14FF0500329
:1056F00083F31188BFF36F8FBFF34F8FFB6100BF40
:10570000FEE701F07FFF3B6B9A6B3B6BDB6B9A42D2
:1057100002D33B68022B29D13A68B968386B00F094
:105720008BFAF8623B6B5B6A002B10D03B6B243327
:10573000184601F04FF80346002B13D03F4B4FF0B3
:1057400080521A60BFF34F8FBFF36F8F0AE0FB6A7E
:10575000002B07D0394B4FF080521A60BFF34F8FA8
:10576000BFF36F8F01F07EFF012363E07B68002BA6
:1057700003D101F077FF00235CE07B6B002B06D1A7
:1057800007F11403184601F089F801237B6301F047
:1057900069FF00F0FBFD01F035FF3B6B93F84430EF
:1057A0005BB2B3F1FF3F03D13B6B002283F844208F
:1057B0003B6B93F845305BB2B3F1FF3F03D13B6BDA
:1057C000002283F8452001F04DFF3A1D07F1140334
:1057D0001146184601F078F80346002B24D1386BA7
:1057E00000F022FB0346002B18D03B6B10337A6885
:1057F0001146184600F09EFF386B00F0ADFA00F03D
:10580000D3FD0346002B7FF47CAF0C4B4FF080524E
:105810001A60BFF34F8FBFF36F8F72E7386B00F0E2
:105820009BFA00F0C1FD6CE7386B00F095FA00F0D0
:10583000BBFD002318463837BD4680BD04ED00E0AF
:1058400080B590B000AFF860B9607A603B60FB68EB
:10585000BB63BB6B002B0AD14FF0500383F311885D
:10586000BFF36F8FBFF34F8FBB6200BFFEE7BB6814
:10587000002B03D1BB6B1B6C002B01D1012300E07B
:105880000023002B0AD14FF0500383F31188BFF39C
:105890006F8FBFF34F8F7B6200BFFEE73B68022B29
:1058A00003D1BB6BDB6B012B01D1012300E0002393
:1058B000002B0AD14FF0500383F31188BFF36F8F91
:1058C000BFF34F8F3B6200BFFEE701F07DFFEFF3B8
:1058D00011824FF0500383F31188BFF36F8FBFF332
:1058E0004F8FFA61BB61FB697B63BB6B9A6BBB6BD0
:1058F000DB6B9A4202D33B68022B2FD1BB6B93F830
:10590000453087F83330BB6B9B6BFB623A68B968F4
:10591000B86B00F091F997F93330B3F1FF3F12D132
:10592000BB6B5B6A002B16D0BB6B2433184600F0B0
:1059300051FF0346002B0ED07B68002B0BD07B68F9
:1059400001221A6007E097F833300133DBB25AB214
:10595000BB6B83F845200123FB6301E00023FB635D
:105960007B6B7B617B6983F3118800BFFB6B1846FF
:105970004037BD4680BD000080B58CB000AFF860F8
:10598000B9607A600023FB62FB68BB62BB6A002BD4
:105990000AD14FF0500383F31188BFF36F8FBFF329
:1059A0004F8F3B6200BFFEE7BB68002B03D1BB6A91
:1059B0001B6C002B01D1012300E00023002B0AD136
:1059C0004FF0500383F31188BFF36F8FBFF34F8FF6
:1059D000FB6100BFFEE701F0BBF80346002B02D1DC
:1059E0007B68002B01D1012300E00023002B0AD1AA
:1059F0004FF0500383F31188BFF36F8FBFF34F8FC6
:105A0000BB6100BFFEE701F0FDFDBB6A9B6B7B62E3
:105A10007B6A002B1FD0B968B86A00F077F97B6AFF
:105A20005A1EBB6A9A63BB6A1B69002B0FD0BB6A04
:105A30001033184600F0CEFE0346002B07D03D4B36
:105A40004FF080521A60BFF34F8FBFF36F8F01F09A
:105A500009FE012369E07B68002B03D101F002FEFF
:105A6000002362E0FB6A002B06D107F11003184601
:105A700000F014FF0123FB6201F0F4FD00F086FC4E
:105A800001F0C0FDBB6A93F844305BB2B3F1FF3F55
:105A900003D1BB6A002283F84420BB6A93F84530E7
:105AA0005BB2B3F1FF3F03D1BB6A002283F845200C
:105AB00001F0D8FD3A1D07F110031146184600F019
:105AC00003FF0346002B23D1B86A00F097F9034681
:105AD000002B17D0BB6A24337A681146184600F0B1
